{
  "_format": "hh-sol-artifact-1",
  "contractName": "Marketplace",
  "sourceName": "contracts/Marketplace.sol",
  "abi": [
    {
      "inputs": [
        {
          "internalType": "address",
          "name": "nftAddress",
          "type": "address"
        },
        {
          "internalType": "address",
          "name": "adminAddress",
          "type": "address"
        }
      ],
      "stateMutability": "nonpayable",
      "type": "constructor"
    },
    {
      "anonymous": false,
      "inputs": [],
      "name": "DefaultAdminDelayChangeCanceled",
      "type": "event"
    },
    {
      "anonymous": false,
      "inputs": [
        {
          "indexed": false,
          "internalType": "uint48",
          "name": "newDelay",
          "type": "uint48"
        },
        {
          "indexed": false,
          "internalType": "uint48",
          "name": "effectSchedule",
          "type": "uint48"
        }
      ],
      "name": "DefaultAdminDelayChangeScheduled",
      "type": "event"
    },
    {
      "anonymous": false,
      "inputs": [],
      "name": "DefaultAdminTransferCanceled",
      "type": "event"
    },
    {
      "anonymous": false,
      "inputs": [
        {
          "indexed": true,
          "internalType": "address",
          "name": "newAdmin",
          "type": "address"
        },
        {
          "indexed": false,
          "internalType": "uint48",
          "name": "acceptSchedule",
          "type": "uint48"
        }
      ],
      "name": "DefaultAdminTransferScheduled",
      "type": "event"
    },
    {
      "anonymous": false,
      "inputs": [
        {
          "indexed": true,
          "internalType": "bytes32",
          "name": "role",
          "type": "bytes32"
        },
        {
          "indexed": true,
          "internalType": "bytes32",
          "name": "previousAdminRole",
          "type": "bytes32"
        },
        {
          "indexed": true,
          "internalType": "bytes32",
          "name": "newAdminRole",
          "type": "bytes32"
        }
      ],
      "name": "RoleAdminChanged",
      "type": "event"
    },
    {
      "anonymous": false,
      "inputs": [
        {
          "indexed": true,
          "internalType": "bytes32",
          "name": "role",
          "type": "bytes32"
        },
        {
          "indexed": true,
          "internalType": "address",
          "name": "account",
          "type": "address"
        },
        {
          "indexed": true,
          "internalType": "address",
          "name": "sender",
          "type": "address"
        }
      ],
      "name": "RoleGranted",
      "type": "event"
    },
    {
      "anonymous": false,
      "inputs": [
        {
          "indexed": true,
          "internalType": "bytes32",
          "name": "role",
          "type": "bytes32"
        },
        {
          "indexed": true,
          "internalType": "address",
          "name": "account",
          "type": "address"
        },
        {
          "indexed": true,
          "internalType": "address",
          "name": "sender",
          "type": "address"
        }
      ],
      "name": "RoleRevoked",
      "type": "event"
    },
    {
      "anonymous": false,
      "inputs": [
        {
          "indexed": true,
          "internalType": "uint256",
          "name": "tokenId",
          "type": "uint256"
        },
        {
          "indexed": false,
          "internalType": "address",
          "name": "newOwner",
          "type": "address"
        },
        {
          "indexed": false,
          "internalType": "uint256",
          "name": "price",
          "type": "uint256"
        },
        {
          "indexed": false,
          "internalType": "contract IERC20",
          "name": "token",
          "type": "address"
        }
      ],
      "name": "TokenSold",
      "type": "event"
    },
    {
      "anonymous": false,
      "inputs": [
        {
          "indexed": true,
          "internalType": "uint256",
          "name": "tokenId",
          "type": "uint256"
        },
        {
          "indexed": false,
          "internalType": "address",
          "name": "excutor",
          "type": "address"
        },
        {
          "indexed": false,
          "internalType": "uint256",
          "name": "price",
          "type": "uint256"
        },
        {
          "indexed": false,
          "internalType": "bool",
          "name": "isSale",
          "type": "bool"
        }
      ],
      "name": "changeSaleState",
      "type": "event"
    },
    {
      "inputs": [],
      "name": "DEFAULT_ADMIN_ROLE",
      "outputs": [
        {
          "internalType": "bytes32",
          "name": "",
          "type": "bytes32"
        }
      ],
      "stateMutability": "view",
      "type": "function"
    },
    {
      "inputs": [],
      "name": "SET_SALE_ROLE",
      "outputs": [
        {
          "internalType": "bytes32",
          "name": "",
          "type": "bytes32"
        }
      ],
      "stateMutability": "view",
      "type": "function"
    },
    {
      "inputs": [],
      "name": "acceptDefaultAdminTransfer",
      "outputs": [],
      "stateMutability": "nonpayable",
      "type": "function"
    },
    {
      "inputs": [
        {
          "internalType": "address",
          "name": "newAdmin",
          "type": "address"
        }
      ],
      "name": "beginDefaultAdminTransfer",
      "outputs": [],
      "stateMutability": "nonpayable",
      "type": "function"
    },
    {
      "inputs": [
        {
          "internalType": "uint256",
          "name": "tokenId",
          "type": "uint256"
        },
        {
          "internalType": "uint256",
          "name": "payment",
          "type": "uint256"
        },
        {
          "internalType": "contract IERC20",
          "name": "token",
          "type": "address"
        }
      ],
      "name": "buyWithERC20",
      "outputs": [],
      "stateMutability": "nonpayable",
      "type": "function"
    },
    {
      "inputs": [],
      "name": "cancelDefaultAdminTransfer",
      "outputs": [],
      "stateMutability": "nonpayable",
      "type": "function"
    },
    {
      "inputs": [
        {
          "internalType": "uint48",
          "name": "newDelay",
          "type": "uint48"
        }
      ],
      "name": "changeDefaultAdminDelay",
      "outputs": [],
      "stateMutability": "nonpayable",
      "type": "function"
    },
    {
      "inputs": [],
      "name": "defaultAdmin",
      "outputs": [
        {
          "internalType": "address",
          "name": "",
          "type": "address"
        }
      ],
      "stateMutability": "view",
      "type": "function"
    },
    {
      "inputs": [],
      "name": "defaultAdminDelay",
      "outputs": [
        {
          "internalType": "uint48",
          "name": "",
          "type": "uint48"
        }
      ],
      "stateMutability": "view",
      "type": "function"
    },
    {
      "inputs": [],
      "name": "defaultAdminDelayIncreaseWait",
      "outputs": [
        {
          "internalType": "uint48",
          "name": "",
          "type": "uint48"
        }
      ],
      "stateMutability": "view",
      "type": "function"
    },
    {
      "inputs": [
        {
          "internalType": "bytes32",
          "name": "role",
          "type": "bytes32"
        }
      ],
      "name": "getRoleAdmin",
      "outputs": [
        {
          "internalType": "bytes32",
          "name": "",
          "type": "bytes32"
        }
      ],
      "stateMutability": "view",
      "type": "function"
    },
    {
      "inputs": [
        {
          "internalType": "uint256",
          "name": "tokenId",
          "type": "uint256"
        }
      ],
      "name": "getSale",
      "outputs": [
        {
          "components": [
            {
              "internalType": "uint256",
              "name": "tokenId",
              "type": "uint256"
            },
            {
              "internalType": "uint256",
              "name": "price",
              "type": "uint256"
            },
            {
              "internalType": "bool",
              "name": "isSale",
              "type": "bool"
            }
          ],
          "internalType": "struct Marketplace.Sale",
          "name": "",
          "type": "tuple"
        }
      ],
      "stateMutability": "view",
      "type": "function"
    },
    {
      "inputs": [],
      "name": "getTokenContract",
      "outputs": [
        {
          "internalType": "address",
          "name": "",
          "type": "address"
        }
      ],
      "stateMutability": "view",
      "type": "function"
    },
    {
      "inputs": [
        {
          "internalType": "bytes32",
          "name": "role",
          "type": "bytes32"
        },
        {
          "internalType": "address",
          "name": "account",
          "type": "address"
        }
      ],
      "name": "grantRole",
      "outputs": [],
      "stateMutability": "nonpayable",
      "type": "function"
    },
    {
      "inputs": [
        {
          "internalType": "bytes32",
          "name": "role",
          "type": "bytes32"
        },
        {
          "internalType": "address",
          "name": "account",
          "type": "address"
        }
      ],
      "name": "hasRole",
      "outputs": [
        {
          "internalType": "bool",
          "name": "",
          "type": "bool"
        }
      ],
      "stateMutability": "view",
      "type": "function"
    },
    {
      "inputs": [],
      "name": "owner",
      "outputs": [
        {
          "internalType": "address",
          "name": "",
          "type": "address"
        }
      ],
      "stateMutability": "view",
      "type": "function"
    },
    {
      "inputs": [],
      "name": "pendingDefaultAdmin",
      "outputs": [
        {
          "internalType": "address",
          "name": "newAdmin",
          "type": "address"
        },
        {
          "internalType": "uint48",
          "name": "schedule",
          "type": "uint48"
        }
      ],
      "stateMutability": "view",
      "type": "function"
    },
    {
      "inputs": [],
      "name": "pendingDefaultAdminDelay",
      "outputs": [
        {
          "internalType": "uint48",
          "name": "newDelay",
          "type": "uint48"
        },
        {
          "internalType": "uint48",
          "name": "schedule",
          "type": "uint48"
        }
      ],
      "stateMutability": "view",
      "type": "function"
    },
    {
      "inputs": [
        {
          "internalType": "bytes32",
          "name": "role",
          "type": "bytes32"
        },
        {
          "internalType": "address",
          "name": "account",
          "type": "address"
        }
      ],
      "name": "renounceRole",
      "outputs": [],
      "stateMutability": "nonpayable",
      "type": "function"
    },
    {
      "inputs": [
        {
          "internalType": "bytes32",
          "name": "role",
          "type": "bytes32"
        },
        {
          "internalType": "address",
          "name": "account",
          "type": "address"
        }
      ],
      "name": "revokeRole",
      "outputs": [],
      "stateMutability": "nonpayable",
      "type": "function"
    },
    {
      "inputs": [],
      "name": "rollbackDefaultAdminDelay",
      "outputs": [],
      "stateMutability": "nonpayable",
      "type": "function"
    },
    {
      "inputs": [
        {
          "internalType": "uint256",
          "name": "tokenId",
          "type": "uint256"
        },
        {
          "internalType": "uint256",
          "name": "price",
          "type": "uint256"
        },
        {
          "internalType": "bool",
          "name": "isSale",
          "type": "bool"
        }
      ],
      "name": "setSale",
      "outputs": [],
      "stateMutability": "nonpayable",
      "type": "function"
    },
    {
      "inputs": [
        {
          "internalType": "address",
          "name": "tokenContract",
          "type": "address"
        }
      ],
      "name": "setTokenContract",
      "outputs": [],
      "stateMutability": "nonpayable",
      "type": "function"
    },
    {
      "inputs": [
        {
          "internalType": "bytes4",
          "name": "interfaceId",
          "type": "bytes4"
        }
      ],
      "name": "supportsInterface",
      "outputs": [
        {
          "internalType": "bool",
          "name": "",
          "type": "bool"
        }
      ],
      "stateMutability": "view",
      "type": "function"
    }
  ],
  "bytecode": "0x60806040523480156200001157600080fd5b50604051620034073803806200340783398181016040528101906200003791906200048f565b6203f480816001600081905550600073ffffffffffffffffffffffffffffffffffffffff168173ffffffffffffffffffffffffffffffffffffffff1603620000b6576040517f08c379a0000000000000000000000000000000000000000000000000000000008152600401620000ad9062000537565b60405180910390fd5b816002601a6101000a81548165ffffffffffff021916908365ffffffffffff160217905550620000f06000801b82620001ae60201b60201c565b505081600460006101000a81548173ffffffffffffffffffffffffffffffffffffffff021916908373ffffffffffffffffffffffffffffffffffffffff160217905550620001657f1b5d2fb82bfd8f979e9ef4f9b62809c8a28c7de2482f810828fc8566d8465cae82620001ae60201b60201c565b80600660006101000a81548173ffffffffffffffffffffffffffffffffffffffff021916908373ffffffffffffffffffffffffffffffffffffffff1602179055505050620005f1565b6000801b82036200027c57600073ffffffffffffffffffffffffffffffffffffffff16620001e16200029760201b60201c565b73ffffffffffffffffffffffffffffffffffffffff16146200023a576040517f08c379a00000000000000000000000000000000000000000000000000000000081526004016200023190620005cf565b60405180910390fd5b80600360006101000a81548173ffffffffffffffffffffffffffffffffffffffff021916908373ffffffffffffffffffffffffffffffffffffffff1602179055505b620002938282620002c160201b62000efa1760201c565b5050565b6000600360009054906101000a900473ffffffffffffffffffffffffffffffffffffffff16905090565b620002d38282620003b260201b60201c565b620003ae57600180600084815260200190815260200160002060000160008373ffffffffffffffffffffffffffffffffffffffff1673ffffffffffffffffffffffffffffffffffffffff16815260200190815260200160002060006101000a81548160ff021916908315150217905550620003536200041d60201b60201c565b73ffffffffffffffffffffffffffffffffffffffff168173ffffffffffffffffffffffffffffffffffffffff16837f2f8788117e7eff1d82e926ec794901d17c78024a50270940304540a733656f0d60405160405180910390a45b5050565b60006001600084815260200190815260200160002060000160008373ffffffffffffffffffffffffffffffffffffffff1673ffffffffffffffffffffffffffffffffffffffff16815260200190815260200160002060009054906101000a900460ff16905092915050565b600033905090565b600080fd5b600073ffffffffffffffffffffffffffffffffffffffff82169050919050565b600062000457826200042a565b9050919050565b62000469816200044a565b81146200047557600080fd5b50565b60008151905062000489816200045e565b92915050565b60008060408385031215620004a957620004a862000425565b5b6000620004b98582860162000478565b9250506020620004cc8582860162000478565b9150509250929050565b600082825260208201905092915050565b7f416363657373436f6e74726f6c3a20302064656661756c742061646d696e0000600082015250565b60006200051f601e83620004d6565b91506200052c82620004e7565b602082019050919050565b60006020820190508181036000830152620005528162000510565b9050919050565b7f416363657373436f6e74726f6c3a2064656661756c742061646d696e20616c7260008201527f65616479206772616e7465640000000000000000000000000000000000000000602082015250565b6000620005b7602c83620004d6565b9150620005c48262000559565b604082019050919050565b60006020820190508181036000830152620005ea81620005a8565b9050919050565b612e0680620006016000396000f3fe608060405234801561001057600080fd5b50600436106101585760003560e01c8063a1eda53c116100c3578063d547741f1161007c578063d547741f1461037f578063d602b9fd1461039b578063d8f6d596146103a5578063f953ca67146103d5578063fa7e5ee8146103f3578063ff134c7e1461040f57610158565b8063a1eda53c146102df578063a217fddf146102fe578063bbcd5bbe1461031c578063cc8463c814610338578063cefc142914610356578063cf6eefb71461036057610158565b806336568abe1161011557806336568abe1461021f578063634e93da1461023b578063649a5ec71461025757806384ef8ffc146102735780638da5cb5b1461029157806391d14854146102af57610158565b806301ffc9a71461015d578063022d63fb1461018d5780630aa6220b146101ab578063248a9ca3146101b557806328b7bede146101e55780632f2ff15d14610203575b600080fd5b61017760048036038101906101729190611c23565b61042b565b6040516101849190611c6b565b60405180910390f35b61019561043d565b6040516101a29190611ca7565b60405180910390f35b6101b3610448565b005b6101cf60048036038101906101ca9190611cf8565b610460565b6040516101dc9190611d34565b60405180910390f35b6101ed610480565b6040516101fa9190611d90565b60405180910390f35b61021d60048036038101906102189190611dd7565b6104aa565b005b61023960048036038101906102349190611dd7565b6104fd565b005b61025560048036038101906102509190611e17565b61060e565b005b610271600480360381019061026c9190611e70565b610628565b005b61027b610642565b6040516102889190611d90565b60405180910390f35b61029961066c565b6040516102a69190611d90565b60405180910390f35b6102c960048036038101906102c49190611dd7565b61067b565b6040516102d69190611c6b565b60405180910390f35b6102e76106e6565b6040516102f5929190611e9d565b60405180910390f35b610306610746565b6040516103139190611d34565b60405180910390f35b61033660048036038101906103319190611e17565b61074d565b005b6103406107bc565b60405161034d9190611ca7565b60405180910390f35b61035e61082a565b005b6103686108b7565b604051610376929190611ec6565b60405180910390f35b61039960048036038101906103949190611dd7565b6108fa565b005b6103a361094d565b005b6103bf60048036038101906103ba9190611f25565b610965565b6040516103cc9190611fb2565b60405180910390f35b6103dd6109c1565b6040516103ea9190611d34565b60405180910390f35b61040d60048036038101906104089190611ff9565b6109e5565b005b6104296004803603810190610424919061208a565b610abf565b005b600061043682610fda565b9050919050565b600062069780905090565b6000801b61045581611054565b61045d611068565b50565b600060016000838152602001908152602001600020600101549050919050565b6000600560009054906101000a900473ffffffffffffffffffffffffffffffffffffffff16905090565b6000801b82036104ef576040517f08c379a00000000000000000000000000000000000000000000000000000000081526004016104e690612160565b60405180910390fd5b6104f98282611075565b5050565b6000801b821480156105415750610512610642565b73ffffffffffffffffffffffffffffffffffffffff168173ffffffffffffffffffffffffffffffffffffffff16145b15610600576000806105516108b7565b91509150600073ffffffffffffffffffffffffffffffffffffffff168273ffffffffffffffffffffffffffffffffffffffff16148015610596575061059581611096565b5b80156105a757506105a6816110ab565b5b6105e6576040517f08c379a00000000000000000000000000000000000000000000000000000000081526004016105dd906121f2565b60405180910390fd5b600260146101000a81549065ffffffffffff021916905550505b61060a82826110bf565b5050565b6000801b61061b81611054565b61062482611142565b5050565b6000801b61063581611054565b61063e826111bd565b5050565b6000600360009054906101000a900473ffffffffffffffffffffffffffffffffffffffff16905090565b6000610676611224565b905090565b60006001600084815260200190815260200160002060000160008373ffffffffffffffffffffffffffffffffffffffff1673ffffffffffffffffffffffffffffffffffffffff16815260200190815260200160002060009054906101000a900460ff16905092915050565b6000806003601a9054906101000a900465ffffffffffff16905061070981611096565b801561071b5750610719816110ab565b155b6107275760008061073e565b600360149054906101000a900465ffffffffffff16815b915091509091565b6000801b81565b7f1b5d2fb82bfd8f979e9ef4f9b62809c8a28c7de2482f810828fc8566d8465cae61077781611054565b81600560006101000a81548173ffffffffffffffffffffffffffffffffffffffff021916908373ffffffffffffffffffffffffffffffffffffffff1602179055505050565b6000806003601a9054906101000a900465ffffffffffff1690506107df81611096565b80156107f057506107ef816110ab565b5b61080e576002601a9054906101000a900465ffffffffffff16610824565b600360149054906101000a900465ffffffffffff165b91505090565b60006108346108b7565b5090508073ffffffffffffffffffffffffffffffffffffffff16610856611233565b73ffffffffffffffffffffffffffffffffffffffff16146108ac576040517f08c379a00000000000000000000000000000000000000000000000000000000081526004016108a390612284565b60405180910390fd5b6108b461123b565b50565b600080600260009054906101000a900473ffffffffffffffffffffffffffffffffffffffff16600260149054906101000a900465ffffffffffff16915091509091565b6000801b820361093f576040517f08c379a000000000000000000000000000000000000000000000000000000000815260040161093690612316565b60405180910390fd5b6109498282611304565b5050565b6000801b61095a81611054565b610962611325565b50565b61096d611ba3565b6007600083815260200190815260200160002060405180606001604052908160008201548152602001600182015481526020016002820160009054906101000a900460ff1615151515815250509050919050565b7f1b5d2fb82bfd8f979e9ef4f9b62809c8a28c7de2482f810828fc8566d8465cae81565b7f1b5d2fb82bfd8f979e9ef4f9b62809c8a28c7de2482f810828fc8566d8465cae610a0f81611054565b604051806060016040528085815260200184815260200183151581525060076000868152602001908152602001600020600082015181600001556020820151816001015560408201518160020160006101000a81548160ff021916908315150217905550905050837f51a4aaa92ce675b55c47fb4984a7e8e28138c1c0a8fc29a0097e4e8202931eb7610aa0611233565b8585604051610ab193929190612345565b60405180910390a250505050565b60006007600085815260200190815260200160002060405180606001604052908160008201548152602001600182015481526020016002820160009054906101000a900460ff16151515158152505090508060400151610b54576040517f08c379a0000000000000000000000000000000000000000000000000000000008152600401610b4b906123ee565b60405180910390fd5b8173ffffffffffffffffffffffffffffffffffffffff16600560009054906101000a900473ffffffffffffffffffffffffffffffffffffffff1673ffffffffffffffffffffffffffffffffffffffff1614610be4576040517f08c379a0000000000000000000000000000000000000000000000000000000008152600401610bdb90612480565b60405180910390fd5b80602001518273ffffffffffffffffffffffffffffffffffffffff166370a08231336040518263ffffffff1660e01b8152600401610c229190611d90565b602060405180830381865afa158015610c3f573d6000803e3d6000fd5b505050506040513d601f19601f82011682018060405250810190610c6391906124b5565b1015610ca4576040517f08c379a0000000000000000000000000000000000000000000000000000000008152600401610c9b90612554565b60405180910390fd5b80602001518314610cea576040517f08c379a0000000000000000000000000000000000000000000000000000000008152600401610ce19061260c565b60405180910390fd5b8173ffffffffffffffffffffffffffffffffffffffff166323b872dd33600660009054906101000a900473ffffffffffffffffffffffffffffffffffffffff16866040518463ffffffff1660e01b8152600401610d499392919061262c565b6020604051808303816000875af1158015610d68573d6000803e3d6000fd5b505050506040513d601f19601f82011682018060405250810190610d8c9190612678565b610dcb576040517f08c379a0000000000000000000000000000000000000000000000000000000008152600401610dc290612717565b60405180910390fd5b600460009054906101000a900473ffffffffffffffffffffffffffffffffffffffff1673ffffffffffffffffffffffffffffffffffffffff166342842e0e600660009054906101000a900473ffffffffffffffffffffffffffffffffffffffff1633876040518463ffffffff1660e01b8152600401610e4c9392919061262c565b600060405180830381600087803b158015610e6657600080fd5b505af1158015610e7a573d6000803e3d6000fd5b505050506007600085815260200190815260200160002060008082016000905560018201600090556002820160006101000a81549060ff02191690555050837f8ae8c52d3445aaa8edc523bfaa75788cbfb61f21529d4f0389b132f76411c138338585604051610eec93929190612796565b60405180910390a250505050565b610f04828261067b565b610fd657600180600084815260200190815260200160002060000160008373ffffffffffffffffffffffffffffffffffffffff1673ffffffffffffffffffffffffffffffffffffffff16815260200190815260200160002060006101000a81548160ff021916908315150217905550610f7b611233565b73ffffffffffffffffffffffffffffffffffffffff168173ffffffffffffffffffffffffffffffffffffffff16837f2f8788117e7eff1d82e926ec794901d17c78024a50270940304540a733656f0d60405160405180910390a45b5050565b60007f31498786000000000000000000000000000000000000000000000000000000007bffffffffffffffffffffffffffffffffffffffffffffffffffffffff1916827bffffffffffffffffffffffffffffffffffffffffffffffffffffffff1916148061104d575061104c82611332565b5b9050919050565b61106581611060611233565b6113ac565b50565b611073600080611431565b565b61107e82610460565b61108781611054565b6110918383611521565b505050565b6000808265ffffffffffff1614159050919050565b6000428265ffffffffffff16109050919050565b6110c7611233565b73ffffffffffffffffffffffffffffffffffffffff168173ffffffffffffffffffffffffffffffffffffffff1614611134576040517f08c379a000000000000000000000000000000000000000000000000000000000815260040161112b9061283f565b60405180910390fd5b61113e82826115f1565b5050565b600061114c6107bc565b6111554261166e565b61115f919061288e565b905061116b82826116c3565b8173ffffffffffffffffffffffffffffffffffffffff167f3377dc44241e779dd06afab5b788a35ca5f3b778836e2990bdb26a2a4b2e5ed6826040516111b19190611ca7565b60405180910390a25050565b60006111c882611776565b6111d14261166e565b6111db919061288e565b90506111e78282611431565b7ff1038c18cf84a56e432fdbfaf746924b7ea511dfe03a6506a0ceba4888788d9b8282604051611218929190611e9d565b60405180910390a15050565b600061122e610642565b905090565b600033905090565b6000806112466108b7565b9150915061125381611096565b80156112645750611263816110ab565b5b6112a3576040517f08c379a000000000000000000000000000000000000000000000000000000000815260040161129a9061293a565b60405180910390fd5b6112b76000801b6112b2610642565b6115f1565b6112c46000801b83611521565b600260006101000a81549073ffffffffffffffffffffffffffffffffffffffff0219169055600260146101000a81549065ffffffffffff02191690555050565b61130d82610460565b61131681611054565b61132083836115f1565b505050565b6113306000806116c3565b565b60007f7965db0b000000000000000000000000000000000000000000000000000000007bffffffffffffffffffffffffffffffffffffffffffffffffffffffff1916827bffffffffffffffffffffffffffffffffffffffffffffffffffffffff191614806113a557506113a4826117d5565b5b9050919050565b6113b6828261067b565b61142d576113c38161183f565b6113d18360001c602061186c565b6040516020016113e2929190612a63565b6040516020818303038152906040526040517f08c379a00000000000000000000000000000000000000000000000000000000081526004016114249190612ae7565b60405180910390fd5b5050565b60006003601a9054906101000a900465ffffffffffff16905061145381611096565b156114d257611461816110ab565b156114a457600360149054906101000a900465ffffffffffff166002601a6101000a81548165ffffffffffff021916908365ffffffffffff1602179055506114d1565b7f2b1fa2edafe6f7b9e97c1a9e0c3660e645beb2dcaa2d45bdbf9beaf5472e1ec560405160405180910390a15b5b82600360146101000a81548165ffffffffffff021916908365ffffffffffff160217905550816003601a6101000a81548165ffffffffffff021916908365ffffffffffff160217905550505050565b6000801b82036115e357600073ffffffffffffffffffffffffffffffffffffffff1661154b610642565b73ffffffffffffffffffffffffffffffffffffffff16146115a1576040517f08c379a000000000000000000000000000000000000000000000000000000000815260040161159890612b7b565b60405180910390fd5b80600360006101000a81548173ffffffffffffffffffffffffffffffffffffffff021916908373ffffffffffffffffffffffffffffffffffffffff1602179055505b6115ed8282610efa565b5050565b6000801b821480156116355750611606610642565b73ffffffffffffffffffffffffffffffffffffffff168173ffffffffffffffffffffffffffffffffffffffff16145b1561166057600360006101000a81549073ffffffffffffffffffffffffffffffffffffffff02191690555b61166a8282611aa8565b5050565b600065ffffffffffff80168211156116bb576040517f08c379a00000000000000000000000000000000000000000000000000000000081526004016116b290612c0d565b60405180910390fd5b819050919050565b60006116cd6108b7565b91505082600260006101000a81548173ffffffffffffffffffffffffffffffffffffffff021916908373ffffffffffffffffffffffffffffffffffffffff16021790555081600260146101000a81548165ffffffffffff021916908365ffffffffffff16021790555061173f81611096565b15611771577f8886ebfc4259abdbc16601dd8fb5678e54878f47b3c34836cfc51154a960510960405160405180910390a15b505050565b6000806117816107bc565b90508065ffffffffffff168365ffffffffffff16116117ab5782816117a69190612c2d565b6117cd565b6117cc8365ffffffffffff166117bf61043d565b65ffffffffffff16611b8a565b5b915050919050565b60007f01ffc9a7000000000000000000000000000000000000000000000000000000007bffffffffffffffffffffffffffffffffffffffffffffffffffffffff1916827bffffffffffffffffffffffffffffffffffffffffffffffffffffffff1916149050919050565b60606118658273ffffffffffffffffffffffffffffffffffffffff16601460ff1661186c565b9050919050565b60606000600283600261187f9190612c67565b6118899190612ca9565b67ffffffffffffffff8111156118a2576118a1612cdd565b5b6040519080825280601f01601f1916602001820160405280156118d45781602001600182028036833780820191505090505b5090507f30000000000000000000000000000000000000000000000000000000000000008160008151811061190c5761190b612d0c565b5b60200101907effffffffffffffffffffffffffffffffffffffffffffffffffffffffffffff1916908160001a9053507f7800000000000000000000000000000000000000000000000000000000000000816001815181106119705761196f612d0c565b5b60200101907effffffffffffffffffffffffffffffffffffffffffffffffffffffffffffff1916908160001a905350600060018460026119b09190612c67565b6119ba9190612ca9565b90505b6001811115611a5a577f3031323334353637383961626364656600000000000000000000000000000000600f8616601081106119fc576119fb612d0c565b5b1a60f81b828281518110611a1357611a12612d0c565b5b60200101907effffffffffffffffffffffffffffffffffffffffffffffffffffffffffffff1916908160001a905350600485901c945080611a5390612d3b565b90506119bd565b5060008414611a9e576040517f08c379a0000000000000000000000000000000000000000000000000000000008152600401611a9590612db0565b60405180910390fd5b8091505092915050565b611ab2828261067b565b15611b865760006001600084815260200190815260200160002060000160008373ffffffffffffffffffffffffffffffffffffffff1673ffffffffffffffffffffffffffffffffffffffff16815260200190815260200160002060006101000a81548160ff021916908315150217905550611b2b611233565b73ffffffffffffffffffffffffffffffffffffffff168173ffffffffffffffffffffffffffffffffffffffff16837ff6391f5c32d9c69d2a47ea670b442974b53935d1edc7fd64eb21e047a839171b60405160405180910390a45b5050565b6000818310611b995781611b9b565b825b905092915050565b604051806060016040528060008152602001600081526020016000151581525090565b600080fd5b60007fffffffff0000000000000000000000000000000000000000000000000000000082169050919050565b611c0081611bcb565b8114611c0b57600080fd5b50565b600081359050611c1d81611bf7565b92915050565b600060208284031215611c3957611c38611bc6565b5b6000611c4784828501611c0e565b91505092915050565b60008115159050919050565b611c6581611c50565b82525050565b6000602082019050611c806000830184611c5c565b92915050565b600065ffffffffffff82169050919050565b611ca181611c86565b82525050565b6000602082019050611cbc6000830184611c98565b92915050565b6000819050919050565b611cd581611cc2565b8114611ce057600080fd5b50565b600081359050611cf281611ccc565b92915050565b600060208284031215611d0e57611d0d611bc6565b5b6000611d1c84828501611ce3565b91505092915050565b611d2e81611cc2565b82525050565b6000602082019050611d496000830184611d25565b92915050565b600073ffffffffffffffffffffffffffffffffffffffff82169050919050565b6000611d7a82611d4f565b9050919050565b611d8a81611d6f565b82525050565b6000602082019050611da56000830184611d81565b92915050565b611db481611d6f565b8114611dbf57600080fd5b50565b600081359050611dd181611dab565b92915050565b60008060408385031215611dee57611ded611bc6565b5b6000611dfc85828601611ce3565b9250506020611e0d85828601611dc2565b9150509250929050565b600060208284031215611e2d57611e2c611bc6565b5b6000611e3b84828501611dc2565b91505092915050565b611e4d81611c86565b8114611e5857600080fd5b50565b600081359050611e6a81611e44565b92915050565b600060208284031215611e8657611e85611bc6565b5b6000611e9484828501611e5b565b91505092915050565b6000604082019050611eb26000830185611c98565b611ebf6020830184611c98565b9392505050565b6000604082019050611edb6000830185611d81565b611ee86020830184611c98565b9392505050565b6000819050919050565b611f0281611eef565b8114611f0d57600080fd5b50565b600081359050611f1f81611ef9565b92915050565b600060208284031215611f3b57611f3a611bc6565b5b6000611f4984828501611f10565b91505092915050565b611f5b81611eef565b82525050565b611f6a81611c50565b82525050565b606082016000820151611f866000850182611f52565b506020820151611f996020850182611f52565b506040820151611fac6040850182611f61565b50505050565b6000606082019050611fc76000830184611f70565b92915050565b611fd681611c50565b8114611fe157600080fd5b50565b600081359050611ff381611fcd565b92915050565b60008060006060848603121561201257612011611bc6565b5b600061202086828701611f10565b935050602061203186828701611f10565b925050604061204286828701611fe4565b9150509250925092565b600061205782611d6f565b9050919050565b6120678161204c565b811461207257600080fd5b50565b6000813590506120848161205e565b92915050565b6000806000606084860312156120a3576120a2611bc6565b5b60006120b186828701611f10565b93505060206120c286828701611f10565b92505060406120d386828701612075565b9150509250925092565b600082825260208201905092915050565b7f416363657373436f6e74726f6c3a2063616e2774206469726563746c7920677260008201527f616e742064656661756c742061646d696e20726f6c6500000000000000000000602082015250565b600061214a6036836120dd565b9150612155826120ee565b604082019050919050565b600060208201905081810360008301526121798161213d565b9050919050565b7f416363657373436f6e74726f6c3a206f6e6c792063616e2072656e6f756e636560008201527f20696e2074776f2064656c617965642073746570730000000000000000000000602082015250565b60006121dc6035836120dd565b91506121e782612180565b604082019050919050565b6000602082019050818103600083015261220b816121cf565b9050919050565b7f416363657373436f6e74726f6c3a2070656e64696e672061646d696e206d757360008201527f7420616363657074000000000000000000000000000000000000000000000000602082015250565b600061226e6028836120dd565b915061227982612212565b604082019050919050565b6000602082019050818103600083015261229d81612261565b9050919050565b7f416363657373436f6e74726f6c3a2063616e2774206469726563746c7920726560008201527f766f6b652064656661756c742061646d696e20726f6c65000000000000000000602082015250565b60006123006037836120dd565b915061230b826122a4565b604082019050919050565b6000602082019050818103600083015261232f816122f3565b9050919050565b61233f81611eef565b82525050565b600060608201905061235a6000830186611d81565b6123676020830185612336565b6123746040830184611c5c565b949350505050565b7f4d61726b6574706c6163653a2054686520746f6b656e206973206e6f7420666f60008201527f722073616c650000000000000000000000000000000000000000000000000000602082015250565b60006123d86026836120dd565b91506123e38261237c565b604082019050919050565b60006020820190508181036000830152612407816123cb565b9050919050565b7f4d61726b6574706c6163653a2054686520746f6b656e206973206e6f7420666f60008201527f722073616c6520666f72207468697320455243323020746f6b656e0000000000602082015250565b600061246a603b836120dd565b91506124758261240e565b604082019050919050565b600060208201905081810360008301526124998161245d565b9050919050565b6000815190506124af81611ef9565b92915050565b6000602082840312156124cb576124ca611bc6565b5b60006124d9848285016124a0565b91505092915050565b7f4d61726b6574706c6163653a20496e73756666696369656e742062616c616e6360008201527f6500000000000000000000000000000000000000000000000000000000000000602082015250565b600061253e6021836120dd565b9150612549826124e2565b604082019050919050565b6000602082019050818103600083015261256d81612531565b9050919050565b7f4d61726b6574706c6163653a20506c65617365207375626d697420746865206160008201527f736b696e6720707269636520696e206f7264657220746f20636f6d706c65746560208201527f2074686520707572636861736500000000000000000000000000000000000000604082015250565b60006125f6604d836120dd565b915061260182612574565b606082019050919050565b60006020820190508181036000830152612625816125e9565b9050919050565b60006060820190506126416000830186611d81565b61264e6020830185611d81565b61265b6040830184612336565b949350505050565b60008151905061267281611fcd565b92915050565b60006020828403121561268e5761268d611bc6565b5b600061269c84828501612663565b91505092915050565b7f4d61726b6574706c6163653a205472616e73666572206f66207061796d656e7460008201527f20746f6b656e206661696c656400000000000000000000000000000000000000602082015250565b6000612701602d836120dd565b915061270c826126a5565b604082019050919050565b60006020820190508181036000830152612730816126f4565b9050919050565b6000819050919050565b600061275c61275761275284611d4f565b612737565b611d4f565b9050919050565b600061276e82612741565b9050919050565b600061278082612763565b9050919050565b61279081612775565b82525050565b60006060820190506127ab6000830186611d81565b6127b86020830185612336565b6127c56040830184612787565b949350505050565b7f416363657373436f6e74726f6c3a2063616e206f6e6c792072656e6f756e636560008201527f20726f6c657320666f722073656c660000000000000000000000000000000000602082015250565b6000612829602f836120dd565b9150612834826127cd565b604082019050919050565b600060208201905081810360008301526128588161281c565b9050919050565b7f4e487b7100000000000000000000000000000000000000000000000000000000600052601160045260246000fd5b600061289982611c86565b91506128a483611c86565b9250828201905065ffffffffffff8111156128c2576128c161285f565b5b92915050565b7f416363657373436f6e74726f6c3a207472616e736665722064656c6179206e6f60008201527f7420706173736564000000000000000000000000000000000000000000000000602082015250565b60006129246028836120dd565b915061292f826128c8565b604082019050919050565b6000602082019050818103600083015261295381612917565b9050919050565b600081905092915050565b7f416363657373436f6e74726f6c3a206163636f756e7420000000000000000000600082015250565b600061299b60178361295a565b91506129a682612965565b601782019050919050565b600081519050919050565b60005b838110156129da5780820151818401526020810190506129bf565b60008484015250505050565b60006129f1826129b1565b6129fb818561295a565b9350612a0b8185602086016129bc565b80840191505092915050565b7f206973206d697373696e6720726f6c6520000000000000000000000000000000600082015250565b6000612a4d60118361295a565b9150612a5882612a17565b601182019050919050565b6000612a6e8261298e565b9150612a7a82856129e6565b9150612a8582612a40565b9150612a9182846129e6565b91508190509392505050565b6000601f19601f8301169050919050565b6000612ab9826129b1565b612ac381856120dd565b9350612ad38185602086016129bc565b612adc81612a9d565b840191505092915050565b60006020820190508181036000830152612b018184612aae565b905092915050565b7f416363657373436f6e74726f6c3a2064656661756c742061646d696e20616c7260008201527f65616479206772616e7465640000000000000000000000000000000000000000602082015250565b6000612b65602c836120dd565b9150612b7082612b09565b604082019050919050565b60006020820190508181036000830152612b9481612b58565b9050919050565b7f53616665436173743a2076616c756520646f65736e27742066697420696e203460008201527f3820626974730000000000000000000000000000000000000000000000000000602082015250565b6000612bf76026836120dd565b9150612c0282612b9b565b604082019050919050565b60006020820190508181036000830152612c2681612bea565b9050919050565b6000612c3882611c86565b9150612c4383611c86565b9250828203905065ffffffffffff811115612c6157612c6061285f565b5b92915050565b6000612c7282611eef565b9150612c7d83611eef565b9250828202612c8b81611eef565b91508282048414831517612ca257612ca161285f565b5b5092915050565b6000612cb482611eef565b9150612cbf83611eef565b9250828201905080821115612cd757612cd661285f565b5b92915050565b7f4e487b7100000000000000000000000000000000000000000000000000000000600052604160045260246000fd5b7f4e487b7100000000000000000000000000000000000000000000000000000000600052603260045260246000fd5b6000612d4682611eef565b915060008203612d5957612d5861285f565b5b600182039050919050565b7f537472696e67733a20686578206c656e67746820696e73756666696369656e74600082015250565b6000612d9a6020836120dd565b9150612da582612d64565b602082019050919050565b60006020820190508181036000830152612dc981612d8d565b905091905056fea264697066735822122049bb0645212267e1b5b88fc528e2f67a7a6727afe990071c0207f2b10f7862d864736f6c63430008120033",
  "linkReferences": {},
  "deployedLinkReferences": {}
}