{
  "_format": "hh-sol-artifact-1",
  "contractName": "BrandSwap",
  "sourceName": "contracts/BrandSwap.sol",
  "abi": [
    {
      "inputs": [],
      "stateMutability": "nonpayable",
      "type": "constructor"
    },
    {
      "anonymous": false,
      "inputs": [
        {
          "indexed": true,
          "internalType": "address",
          "name": "owner",
          "type": "address"
        },
        {
          "indexed": true,
          "internalType": "address",
          "name": "approved",
          "type": "address"
        },
        {
          "indexed": true,
          "internalType": "uint256",
          "name": "tokenId",
          "type": "uint256"
        }
      ],
      "name": "Approval",
      "type": "event"
    },
    {
      "anonymous": false,
      "inputs": [
        {
          "indexed": true,
          "internalType": "address",
          "name": "owner",
          "type": "address"
        },
        {
          "indexed": true,
          "internalType": "address",
          "name": "operator",
          "type": "address"
        },
        {
          "indexed": false,
          "internalType": "bool",
          "name": "approved",
          "type": "bool"
        }
      ],
      "name": "ApprovalForAll",
      "type": "event"
    },
    {
      "anonymous": false,
      "inputs": [
        {
          "indexed": false,
          "internalType": "uint256",
          "name": "_fromTokenId",
          "type": "uint256"
        },
        {
          "indexed": false,
          "internalType": "uint256",
          "name": "_toTokenId",
          "type": "uint256"
        }
      ],
      "name": "BatchMetadataUpdate",
      "type": "event"
    },
    {
      "anonymous": false,
      "inputs": [],
      "name": "DefaultAdminDelayChangeCanceled",
      "type": "event"
    },
    {
      "anonymous": false,
      "inputs": [
        {
          "indexed": false,
          "internalType": "uint48",
          "name": "newDelay",
          "type": "uint48"
        },
        {
          "indexed": false,
          "internalType": "uint48",
          "name": "effectSchedule",
          "type": "uint48"
        }
      ],
      "name": "DefaultAdminDelayChangeScheduled",
      "type": "event"
    },
    {
      "anonymous": false,
      "inputs": [],
      "name": "DefaultAdminTransferCanceled",
      "type": "event"
    },
    {
      "anonymous": false,
      "inputs": [
        {
          "indexed": true,
          "internalType": "address",
          "name": "newAdmin",
          "type": "address"
        },
        {
          "indexed": false,
          "internalType": "uint48",
          "name": "acceptSchedule",
          "type": "uint48"
        }
      ],
      "name": "DefaultAdminTransferScheduled",
      "type": "event"
    },
    {
      "anonymous": false,
      "inputs": [
        {
          "indexed": false,
          "internalType": "uint256",
          "name": "_tokenId",
          "type": "uint256"
        }
      ],
      "name": "MetadataUpdate",
      "type": "event"
    },
    {
      "anonymous": false,
      "inputs": [
        {
          "indexed": false,
          "internalType": "address",
          "name": "account",
          "type": "address"
        }
      ],
      "name": "Paused",
      "type": "event"
    },
    {
      "anonymous": false,
      "inputs": [
        {
          "indexed": true,
          "internalType": "bytes32",
          "name": "role",
          "type": "bytes32"
        },
        {
          "indexed": true,
          "internalType": "bytes32",
          "name": "previousAdminRole",
          "type": "bytes32"
        },
        {
          "indexed": true,
          "internalType": "bytes32",
          "name": "newAdminRole",
          "type": "bytes32"
        }
      ],
      "name": "RoleAdminChanged",
      "type": "event"
    },
    {
      "anonymous": false,
      "inputs": [
        {
          "indexed": true,
          "internalType": "bytes32",
          "name": "role",
          "type": "bytes32"
        },
        {
          "indexed": true,
          "internalType": "address",
          "name": "account",
          "type": "address"
        },
        {
          "indexed": true,
          "internalType": "address",
          "name": "sender",
          "type": "address"
        }
      ],
      "name": "RoleGranted",
      "type": "event"
    },
    {
      "anonymous": false,
      "inputs": [
        {
          "indexed": true,
          "internalType": "bytes32",
          "name": "role",
          "type": "bytes32"
        },
        {
          "indexed": true,
          "internalType": "address",
          "name": "account",
          "type": "address"
        },
        {
          "indexed": true,
          "internalType": "address",
          "name": "sender",
          "type": "address"
        }
      ],
      "name": "RoleRevoked",
      "type": "event"
    },
    {
      "anonymous": false,
      "inputs": [
        {
          "indexed": true,
          "internalType": "address",
          "name": "from",
          "type": "address"
        },
        {
          "indexed": true,
          "internalType": "address",
          "name": "to",
          "type": "address"
        },
        {
          "indexed": true,
          "internalType": "uint256",
          "name": "tokenId",
          "type": "uint256"
        }
      ],
      "name": "Transfer",
      "type": "event"
    },
    {
      "anonymous": false,
      "inputs": [
        {
          "indexed": false,
          "internalType": "address",
          "name": "account",
          "type": "address"
        }
      ],
      "name": "Unpaused",
      "type": "event"
    },
    {
      "anonymous": false,
      "inputs": [
        {
          "indexed": true,
          "internalType": "address",
          "name": "sender",
          "type": "address"
        },
        {
          "indexed": true,
          "internalType": "uint256",
          "name": "tokenId",
          "type": "uint256"
        },
        {
          "indexed": false,
          "internalType": "string",
          "name": "uri",
          "type": "string"
        }
      ],
      "name": "nftMinted",
      "type": "event"
    },
    {
      "inputs": [],
      "name": "BURNER_ROLE",
      "outputs": [
        {
          "internalType": "bytes32",
          "name": "",
          "type": "bytes32"
        }
      ],
      "stateMutability": "view",
      "type": "function"
    },
    {
      "inputs": [],
      "name": "DEFAULT_ADMIN_ROLE",
      "outputs": [
        {
          "internalType": "bytes32",
          "name": "",
          "type": "bytes32"
        }
      ],
      "stateMutability": "view",
      "type": "function"
    },
    {
      "inputs": [],
      "name": "MINTER_ROLE",
      "outputs": [
        {
          "internalType": "bytes32",
          "name": "",
          "type": "bytes32"
        }
      ],
      "stateMutability": "view",
      "type": "function"
    },
    {
      "inputs": [],
      "name": "acceptDefaultAdminTransfer",
      "outputs": [],
      "stateMutability": "nonpayable",
      "type": "function"
    },
    {
      "inputs": [
        {
          "internalType": "address",
          "name": "to",
          "type": "address"
        },
        {
          "internalType": "uint256",
          "name": "tokenId",
          "type": "uint256"
        }
      ],
      "name": "approve",
      "outputs": [],
      "stateMutability": "nonpayable",
      "type": "function"
    },
    {
      "inputs": [
        {
          "internalType": "address",
          "name": "owner",
          "type": "address"
        }
      ],
      "name": "balanceOf",
      "outputs": [
        {
          "internalType": "uint256",
          "name": "",
          "type": "uint256"
        }
      ],
      "stateMutability": "view",
      "type": "function"
    },
    {
      "inputs": [
        {
          "internalType": "address",
          "name": "newAdmin",
          "type": "address"
        }
      ],
      "name": "beginDefaultAdminTransfer",
      "outputs": [],
      "stateMutability": "nonpayable",
      "type": "function"
    },
    {
      "inputs": [
        {
          "internalType": "uint256",
          "name": "tokenId",
          "type": "uint256"
        }
      ],
      "name": "burn",
      "outputs": [],
      "stateMutability": "nonpayable",
      "type": "function"
    },
    {
      "inputs": [],
      "name": "cancelDefaultAdminTransfer",
      "outputs": [],
      "stateMutability": "nonpayable",
      "type": "function"
    },
    {
      "inputs": [
        {
          "internalType": "uint48",
          "name": "newDelay",
          "type": "uint48"
        }
      ],
      "name": "changeDefaultAdminDelay",
      "outputs": [],
      "stateMutability": "nonpayable",
      "type": "function"
    },
    {
      "inputs": [],
      "name": "defaultAdmin",
      "outputs": [
        {
          "internalType": "address",
          "name": "",
          "type": "address"
        }
      ],
      "stateMutability": "view",
      "type": "function"
    },
    {
      "inputs": [],
      "name": "defaultAdminDelay",
      "outputs": [
        {
          "internalType": "uint48",
          "name": "",
          "type": "uint48"
        }
      ],
      "stateMutability": "view",
      "type": "function"
    },
    {
      "inputs": [],
      "name": "defaultAdminDelayIncreaseWait",
      "outputs": [
        {
          "internalType": "uint48",
          "name": "",
          "type": "uint48"
        }
      ],
      "stateMutability": "view",
      "type": "function"
    },
    {
      "inputs": [
        {
          "internalType": "uint256",
          "name": "tokenId",
          "type": "uint256"
        }
      ],
      "name": "getApproved",
      "outputs": [
        {
          "internalType": "address",
          "name": "",
          "type": "address"
        }
      ],
      "stateMutability": "view",
      "type": "function"
    },
    {
      "inputs": [
        {
          "internalType": "bytes32",
          "name": "role",
          "type": "bytes32"
        }
      ],
      "name": "getRoleAdmin",
      "outputs": [
        {
          "internalType": "bytes32",
          "name": "",
          "type": "bytes32"
        }
      ],
      "stateMutability": "view",
      "type": "function"
    },
    {
      "inputs": [
        {
          "internalType": "bytes32",
          "name": "role",
          "type": "bytes32"
        },
        {
          "internalType": "address",
          "name": "account",
          "type": "address"
        }
      ],
      "name": "grantRole",
      "outputs": [],
      "stateMutability": "nonpayable",
      "type": "function"
    },
    {
      "inputs": [
        {
          "internalType": "bytes32",
          "name": "role",
          "type": "bytes32"
        },
        {
          "internalType": "address",
          "name": "account",
          "type": "address"
        }
      ],
      "name": "hasRole",
      "outputs": [
        {
          "internalType": "bool",
          "name": "",
          "type": "bool"
        }
      ],
      "stateMutability": "view",
      "type": "function"
    },
    {
      "inputs": [
        {
          "internalType": "address",
          "name": "owner",
          "type": "address"
        },
        {
          "internalType": "address",
          "name": "operator",
          "type": "address"
        }
      ],
      "name": "isApprovedForAll",
      "outputs": [
        {
          "internalType": "bool",
          "name": "",
          "type": "bool"
        }
      ],
      "stateMutability": "view",
      "type": "function"
    },
    {
      "inputs": [],
      "name": "name",
      "outputs": [
        {
          "internalType": "string",
          "name": "",
          "type": "string"
        }
      ],
      "stateMutability": "view",
      "type": "function"
    },
    {
      "inputs": [
        {
          "internalType": "string",
          "name": "uri",
          "type": "string"
        }
      ],
      "name": "nftMint",
      "outputs": [],
      "stateMutability": "nonpayable",
      "type": "function"
    },
    {
      "inputs": [],
      "name": "owner",
      "outputs": [
        {
          "internalType": "address",
          "name": "",
          "type": "address"
        }
      ],
      "stateMutability": "view",
      "type": "function"
    },
    {
      "inputs": [
        {
          "internalType": "uint256",
          "name": "tokenId",
          "type": "uint256"
        }
      ],
      "name": "ownerOf",
      "outputs": [
        {
          "internalType": "address",
          "name": "",
          "type": "address"
        }
      ],
      "stateMutability": "view",
      "type": "function"
    },
    {
      "inputs": [],
      "name": "pause",
      "outputs": [],
      "stateMutability": "nonpayable",
      "type": "function"
    },
    {
      "inputs": [
        {
          "internalType": "uint256",
          "name": "tokenId",
          "type": "uint256"
        }
      ],
      "name": "pauseToken",
      "outputs": [],
      "stateMutability": "nonpayable",
      "type": "function"
    },
    {
      "inputs": [],
      "name": "paused",
      "outputs": [
        {
          "internalType": "bool",
          "name": "",
          "type": "bool"
        }
      ],
      "stateMutability": "view",
      "type": "function"
    },
    {
      "inputs": [],
      "name": "pendingDefaultAdmin",
      "outputs": [
        {
          "internalType": "address",
          "name": "newAdmin",
          "type": "address"
        },
        {
          "internalType": "uint48",
          "name": "schedule",
          "type": "uint48"
        }
      ],
      "stateMutability": "view",
      "type": "function"
    },
    {
      "inputs": [],
      "name": "pendingDefaultAdminDelay",
      "outputs": [
        {
          "internalType": "uint48",
          "name": "newDelay",
          "type": "uint48"
        },
        {
          "internalType": "uint48",
          "name": "schedule",
          "type": "uint48"
        }
      ],
      "stateMutability": "view",
      "type": "function"
    },
    {
      "inputs": [
        {
          "internalType": "bytes32",
          "name": "role",
          "type": "bytes32"
        },
        {
          "internalType": "address",
          "name": "account",
          "type": "address"
        }
      ],
      "name": "renounceRole",
      "outputs": [],
      "stateMutability": "nonpayable",
      "type": "function"
    },
    {
      "inputs": [
        {
          "internalType": "bytes32",
          "name": "role",
          "type": "bytes32"
        },
        {
          "internalType": "address",
          "name": "account",
          "type": "address"
        }
      ],
      "name": "revokeRole",
      "outputs": [],
      "stateMutability": "nonpayable",
      "type": "function"
    },
    {
      "inputs": [],
      "name": "rollbackDefaultAdminDelay",
      "outputs": [],
      "stateMutability": "nonpayable",
      "type": "function"
    },
    {
      "inputs": [
        {
          "internalType": "address",
          "name": "from",
          "type": "address"
        },
        {
          "internalType": "address",
          "name": "to",
          "type": "address"
        },
        {
          "internalType": "uint256",
          "name": "tokenId",
          "type": "uint256"
        }
      ],
      "name": "safeTransferFrom",
      "outputs": [],
      "stateMutability": "nonpayable",
      "type": "function"
    },
    {
      "inputs": [
        {
          "internalType": "address",
          "name": "from",
          "type": "address"
        },
        {
          "internalType": "address",
          "name": "to",
          "type": "address"
        },
        {
          "internalType": "uint256",
          "name": "tokenId",
          "type": "uint256"
        },
        {
          "internalType": "bytes",
          "name": "data",
          "type": "bytes"
        }
      ],
      "name": "safeTransferFrom",
      "outputs": [],
      "stateMutability": "nonpayable",
      "type": "function"
    },
    {
      "inputs": [
        {
          "internalType": "address",
          "name": "operator",
          "type": "address"
        },
        {
          "internalType": "bool",
          "name": "approved",
          "type": "bool"
        }
      ],
      "name": "setApprovalForAll",
      "outputs": [],
      "stateMutability": "nonpayable",
      "type": "function"
    },
    {
      "inputs": [
        {
          "internalType": "bytes4",
          "name": "interfaceId",
          "type": "bytes4"
        }
      ],
      "name": "supportsInterface",
      "outputs": [
        {
          "internalType": "bool",
          "name": "",
          "type": "bool"
        }
      ],
      "stateMutability": "view",
      "type": "function"
    },
    {
      "inputs": [],
      "name": "symbol",
      "outputs": [
        {
          "internalType": "string",
          "name": "",
          "type": "string"
        }
      ],
      "stateMutability": "view",
      "type": "function"
    },
    {
      "inputs": [
        {
          "internalType": "uint256",
          "name": "index",
          "type": "uint256"
        }
      ],
      "name": "tokenByIndex",
      "outputs": [
        {
          "internalType": "uint256",
          "name": "",
          "type": "uint256"
        }
      ],
      "stateMutability": "view",
      "type": "function"
    },
    {
      "inputs": [
        {
          "internalType": "address",
          "name": "owner",
          "type": "address"
        },
        {
          "internalType": "uint256",
          "name": "index",
          "type": "uint256"
        }
      ],
      "name": "tokenOfOwnerByIndex",
      "outputs": [
        {
          "internalType": "uint256",
          "name": "",
          "type": "uint256"
        }
      ],
      "stateMutability": "view",
      "type": "function"
    },
    {
      "inputs": [
        {
          "internalType": "uint256",
          "name": "tokenId",
          "type": "uint256"
        }
      ],
      "name": "tokenURI",
      "outputs": [
        {
          "internalType": "string",
          "name": "",
          "type": "string"
        }
      ],
      "stateMutability": "view",
      "type": "function"
    },
    {
      "inputs": [],
      "name": "totalSupply",
      "outputs": [
        {
          "internalType": "uint256",
          "name": "",
          "type": "uint256"
        }
      ],
      "stateMutability": "view",
      "type": "function"
    },
    {
      "inputs": [
        {
          "internalType": "address",
          "name": "from",
          "type": "address"
        },
        {
          "internalType": "address",
          "name": "to",
          "type": "address"
        },
        {
          "internalType": "uint256",
          "name": "tokenId",
          "type": "uint256"
        }
      ],
      "name": "transferFrom",
      "outputs": [],
      "stateMutability": "nonpayable",
      "type": "function"
    },
    {
      "inputs": [],
      "name": "unpause",
      "outputs": [],
      "stateMutability": "nonpayable",
      "type": "function"
    },
    {
      "inputs": [
        {
          "internalType": "uint256",
          "name": "tokenId",
          "type": "uint256"
        }
      ],
      "name": "unpauseToken",
      "outputs": [],
      "stateMutability": "nonpayable",
      "type": "function"
    }
  ],
  "bytecode": "0x60806040523480156200001157600080fd5b506203f480620000266200020960201b60201c565b6040518060400160405280600981526020017f4272616e645377617000000000000000000000000000000000000000000000008152506040518060400160405280600281526020017f42530000000000000000000000000000000000000000000000000000000000008152508160009081620000a39190620006fb565b508060019081620000b59190620006fb565b5050506000600a60006101000a81548160ff021916908315150217905550600073ffffffffffffffffffffffffffffffffffffffff168173ffffffffffffffffffffffffffffffffffffffff160362000145576040517f08c379a00000000000000000000000000000000000000000000000000000000081526004016200013c9062000843565b60405180910390fd5b81600d601a6101000a81548165ffffffffffff021916908365ffffffffffff1602179055506200017f6000801b826200021160201b60201c565b5050620001c27f9f2df0fed2c77648de5860a4cc508cd0818c85b8b8a1ab4ceeef8d981c8956a6620001b66200020960201b60201c565b6200021160201b60201c565b620002037f3c11d16cbaffd01df69ce1c404f6340ee057498f5f00246190ea54220576a848620001f76200020960201b60201c565b6200021160201b60201c565b620008fd565b600033905090565b6000801b8203620002df57600073ffffffffffffffffffffffffffffffffffffffff1662000244620002fa60201b60201c565b73ffffffffffffffffffffffffffffffffffffffff16146200029d576040517f08c379a00000000000000000000000000000000000000000000000000000000081526004016200029490620008db565b60405180910390fd5b80600e60006101000a81548173ffffffffffffffffffffffffffffffffffffffff021916908373ffffffffffffffffffffffffffffffffffffffff1602179055505b620002f682826200032460201b620015ad1760201c565b5050565b6000600e60009054906101000a900473ffffffffffffffffffffffffffffffffffffffff16905090565b6200033682826200041660201b60201c565b62000412576001600c600084815260200190815260200160002060000160008373ffffffffffffffffffffffffffffffffffffffff1673ffffffffffffffffffffffffffffffffffffffff16815260200190815260200160002060006101000a81548160ff021916908315150217905550620003b76200020960201b60201c565b73ffffffffffffffffffffffffffffffffffffffff168173ffffffffffffffffffffffffffffffffffffffff16837f2f8788117e7eff1d82e926ec794901d17c78024a50270940304540a733656f0d60405160405180910390a45b5050565b6000600c600084815260200190815260200160002060000160008373ffffffffffffffffffffffffffffffffffffffff1673ffffffffffffffffffffffffffffffffffffffff16815260200190815260200160002060009054906101000a900460ff16905092915050565b600081519050919050565b7f4e487b7100000000000000000000000000000000000000000000000000000000600052604160045260246000fd5b7f4e487b7100000000000000000000000000000000000000000000000000000000600052602260045260246000fd5b600060028204905060018216806200050357607f821691505b602082108103620005195762000518620004bb565b5b50919050565b60008190508160005260206000209050919050565b60006020601f8301049050919050565b600082821b905092915050565b600060088302620005837fffffffffffffffffffffffffffffffffffffffffffffffffffffffffffffffff8262000544565b6200058f868362000544565b95508019841693508086168417925050509392505050565b6000819050919050565b6000819050919050565b6000620005dc620005d6620005d084620005a7565b620005b1565b620005a7565b9050919050565b6000819050919050565b620005f883620005bb565b620006106200060782620005e3565b84845462000551565b825550505050565b600090565b6200062762000618565b62000634818484620005ed565b505050565b5b818110156200065c57620006506000826200061d565b6001810190506200063a565b5050565b601f821115620006ab5762000675816200051f565b620006808462000534565b8101602085101562000690578190505b620006a86200069f8562000534565b83018262000639565b50505b505050565b600082821c905092915050565b6000620006d060001984600802620006b0565b1980831691505092915050565b6000620006eb8383620006bd565b9150826002028217905092915050565b620007068262000481565b67ffffffffffffffff8111156200072257620007216200048c565b5b6200072e8254620004ea565b6200073b82828562000660565b600060209050601f8311600181146200077357600084156200075e578287015190505b6200076a8582620006dd565b865550620007da565b601f19841662000783866200051f565b60005b82811015620007ad5784890151825560018201915060208501945060208101905062000786565b86831015620007cd5784890151620007c9601f891682620006bd565b8355505b6001600288020188555050505b505050505050565b600082825260208201905092915050565b7f416363657373436f6e74726f6c3a20302064656661756c742061646d696e0000600082015250565b60006200082b601e83620007e2565b91506200083882620007f3565b602082019050919050565b600060208201905081810360008301526200085e816200081c565b9050919050565b7f416363657373436f6e74726f6c3a2064656661756c742061646d696e20616c7260008201527f65616479206772616e7465640000000000000000000000000000000000000000602082015250565b6000620008c3602c83620007e2565b9150620008d08262000865565b604082019050919050565b60006020820190508181036000830152620008f681620008b4565b9050919050565b615b5e806200090d6000396000f3fe608060405234801561001057600080fd5b506004361061025e5760003560e01c806370a0823111610146578063b88d4fde116100c3578063cf6eefb711610087578063cf6eefb7146106d6578063d5391393146106f5578063d547741f14610713578063d602b9fd1461072f578063e985e9c514610739578063fbd395f8146107695761025e565b8063b88d4fde14610646578063b8b6850414610662578063c87b56dd1461067e578063cc8463c8146106ae578063cefc1429146106cc5761025e565b806391d148541161010a57806391d148541461059f57806395d89b41146105cf578063a1eda53c146105ed578063a217fddf1461060c578063a22cb4651461062a5761025e565b806370a082311461050d578063776ab6341461053d5780638456cb591461055957806384ef8ffc146105635780638da5cb5b146105815761025e565b80632f2ff15d116101df57806342966c68116101a357806342966c681461043b5780634f6ccce7146104575780635c975abb14610487578063634e93da146104a55780636352211e146104c1578063649a5ec7146104f15761025e565b80632f2ff15d146103ad5780632f745c59146103c957806336568abe146103f95780633f4ba83a1461041557806342842e0e1461041f5761025e565b80630aa6220b116102265780630aa6220b1461031b57806318160ddd1461032557806323b872dd14610343578063248a9ca31461035f578063282c51f31461038f5761025e565b806301ffc9a714610263578063022d63fb1461029357806306fdde03146102b1578063081812fc146102cf578063095ea7b3146102ff575b600080fd5b61027d60048036038101906102789190613cd8565b610785565b60405161028a9190613d20565b60405180910390f35b61029b610797565b6040516102a89190613d5c565b60405180910390f35b6102b96107a2565b6040516102c69190613e07565b60405180910390f35b6102e960048036038101906102e49190613e5f565b610834565b6040516102f69190613ecd565b60405180910390f35b61031960048036038101906103149190613f14565b61087a565b005b610323610991565b005b61032d6109a9565b60405161033a9190613f63565b60405180910390f35b61035d60048036038101906103589190613f7e565b6109b6565b005b61037960048036038101906103749190614007565b610a16565b6040516103869190614043565b60405180910390f35b610397610a36565b6040516103a49190614043565b60405180910390f35b6103c760048036038101906103c2919061405e565b610a5a565b005b6103e360048036038101906103de9190613f14565b610aad565b6040516103f09190613f63565b60405180910390f35b610413600480360381019061040e919061405e565b610b52565b005b61041d610c63565b005b61043960048036038101906104349190613f7e565b610c7b565b005b61045560048036038101906104509190613e5f565b610c9b565b005b610471600480360381019061046c9190613e5f565b610d17565b60405161047e9190613f63565b60405180910390f35b61048f610d88565b60405161049c9190613d20565b60405180910390f35b6104bf60048036038101906104ba919061409e565b610d9f565b005b6104db60048036038101906104d69190613e5f565b610db9565b6040516104e89190613ecd565b60405180910390f35b61050b600480360381019061050691906140f7565b610e3f565b005b6105276004803603810190610522919061409e565b610e59565b6040516105349190613f63565b60405180910390f35b61055760048036038101906105529190613e5f565b610f10565b005b610561610f8f565b005b61056b610fa7565b6040516105789190613ecd565b60405180910390f35b610589610fd1565b6040516105969190613ecd565b60405180910390f35b6105b960048036038101906105b4919061405e565b610fe0565b6040516105c69190613d20565b60405180910390f35b6105d761104b565b6040516105e49190613e07565b60405180910390f35b6105f56110dd565b604051610603929190614124565b60405180910390f35b61061461113d565b6040516106219190614043565b60405180910390f35b610644600480360381019061063f9190614179565b611144565b005b610660600480360381019061065b91906142ee565b61115a565b005b61067c600480360381019061067791906143d1565b6111bc565b005b61069860048036038101906106939190613e5f565b6112bb565b6040516106a59190613e07565b60405180910390f35b6106b66112cd565b6040516106c39190613d5c565b60405180910390f35b6106d461133b565b005b6106de6113c8565b6040516106ec92919061441e565b60405180910390f35b6106fd61140b565b60405161070a9190614043565b60405180910390f35b61072d6004803603810190610728919061405e565b61142f565b005b610737611482565b005b610753600480360381019061074e9190614447565b61149a565b6040516107609190613d20565b60405180910390f35b610783600480360381019061077e9190613e5f565b61152e565b005b60006107908261168e565b9050919050565b600062069780905090565b6060600080546107b1906144b6565b80601f01602080910402602001604051908101604052809291908181526020018280546107dd906144b6565b801561082a5780601f106107ff5761010080835404028352916020019161082a565b820191906000526020600020905b81548152906001019060200180831161080d57829003601f168201915b5050505050905090565b600061083f82611708565b6004600083815260200190815260200160002060009054906101000a900473ffffffffffffffffffffffffffffffffffffffff169050919050565b600061088582610db9565b90508073ffffffffffffffffffffffffffffffffffffffff168373ffffffffffffffffffffffffffffffffffffffff16036108f5576040517f08c379a00000000000000000000000000000000000000000000000000000000081526004016108ec90614559565b60405180910390fd5b8073ffffffffffffffffffffffffffffffffffffffff16610914611753565b73ffffffffffffffffffffffffffffffffffffffff16148061094357506109428161093d611753565b61149a565b5b610982576040517f08c379a0000000000000000000000000000000000000000000000000000000008152600401610979906145eb565b60405180910390fd5b61098c838361175b565b505050565b6000801b61099e81611814565b6109a6611828565b50565b6000600880549050905090565b6109c76109c1611753565b82611835565b610a06576040517f08c379a00000000000000000000000000000000000000000000000000000000081526004016109fd9061467d565b60405180910390fd5b610a118383836118ca565b505050565b6000600c6000838152602001908152602001600020600101549050919050565b7f3c11d16cbaffd01df69ce1c404f6340ee057498f5f00246190ea54220576a84881565b6000801b8203610a9f576040517f08c379a0000000000000000000000000000000000000000000000000000000008152600401610a969061470f565b60405180910390fd5b610aa98282611bc3565b5050565b6000610ab883610e59565b8210610af9576040517f08c379a0000000000000000000000000000000000000000000000000000000008152600401610af0906147a1565b60405180910390fd5b600660008473ffffffffffffffffffffffffffffffffffffffff1673ffffffffffffffffffffffffffffffffffffffff168152602001908152602001600020600083815260200190815260200160002054905092915050565b6000801b82148015610b965750610b67610fa7565b73ffffffffffffffffffffffffffffffffffffffff168173ffffffffffffffffffffffffffffffffffffffff16145b15610c5557600080610ba66113c8565b91509150600073ffffffffffffffffffffffffffffffffffffffff168273ffffffffffffffffffffffffffffffffffffffff16148015610beb5750610bea81611be4565b5b8015610bfc5750610bfb81611bf9565b5b610c3b576040517f08c379a0000000000000000000000000000000000000000000000000000000008152600401610c3290614833565b60405180910390fd5b600d60146101000a81549065ffffffffffff021916905550505b610c5f8282611c0d565b5050565b6000801b610c7081611814565b610c78611c90565b50565b610c968383836040518060200160405280600081525061115a565b505050565b610ccc7f3c11d16cbaffd01df69ce1c404f6340ee057498f5f00246190ea54220576a848610cc7611753565b610fe0565b610d0b576040517f08c379a0000000000000000000000000000000000000000000000000000000008152600401610d02906148c5565b60405180910390fd5b610d1481611cf3565b50565b6000610d216109a9565b8210610d62576040517f08c379a0000000000000000000000000000000000000000000000000000000008152600401610d5990614957565b60405180910390fd5b60088281548110610d7657610d75614977565b5b90600052602060002001549050919050565b6000600a60009054906101000a900460ff16905090565b6000801b610dac81611814565b610db582611cff565b5050565b600080610dc583611d7a565b9050600073ffffffffffffffffffffffffffffffffffffffff168173ffffffffffffffffffffffffffffffffffffffff1603610e36576040517f08c379a0000000000000000000000000000000000000000000000000000000008152600401610e2d906149f2565b60405180910390fd5b80915050919050565b6000801b610e4c81611814565b610e5582611db7565b5050565b60008073ffffffffffffffffffffffffffffffffffffffff168273ffffffffffffffffffffffffffffffffffffffff1603610ec9576040517f08c379a0000000000000000000000000000000000000000000000000000000008152600401610ec090614a84565b60405180910390fd5b600360008373ffffffffffffffffffffffffffffffffffffffff1673ffffffffffffffffffffffffffffffffffffffff168152602001908152602001600020549050919050565b610f21610f1b611753565b82611835565b610f60576040517f08c379a0000000000000000000000000000000000000000000000000000000008152600401610f5790614af0565b60405180910390fd5b60006010600083815260200190815260200160002060006101000a81548160ff02191690831515021790555050565b6000801b610f9c81611814565b610fa4611e1e565b50565b6000600e60009054906101000a900473ffffffffffffffffffffffffffffffffffffffff16905090565b6000610fdb611e81565b905090565b6000600c600084815260200190815260200160002060000160008373ffffffffffffffffffffffffffffffffffffffff1673ffffffffffffffffffffffffffffffffffffffff16815260200190815260200160002060009054906101000a900460ff16905092915050565b60606001805461105a906144b6565b80601f0160208091040260200160405190810160405280929190818152602001828054611086906144b6565b80156110d35780601f106110a8576101008083540402835291602001916110d3565b820191906000526020600020905b8154815290600101906020018083116110b657829003601f168201915b5050505050905090565b600080600e601a9054906101000a900465ffffffffffff16905061110081611be4565b8015611112575061111081611bf9565b155b61111e57600080611135565b600e60149054906101000a900465ffffffffffff16815b915091509091565b6000801b81565b61115661114f611753565b8383611e90565b5050565b61116b611165611753565b83611835565b6111aa576040517f08c379a00000000000000000000000000000000000000000000000000000000081526004016111a19061467d565b60405180910390fd5b6111b684848484611ffc565b50505050565b7f9f2df0fed2c77648de5860a4cc508cd0818c85b8b8a1ab4ceeef8d981c8956a66111e681611814565b6111f0600f612058565b60006111fc600f61206e565b905061120f611209610fd1565b8261207c565b61125d8185858080601f016020809104026020016040519081016040528093929190818152602001838380828437600081840152601f19601f8201169050808301925050505050505061209a565b80611266610fd1565b73ffffffffffffffffffffffffffffffffffffffff167f1f99c63235dc68ccdea086b13dceb9b432242dcd37c5141a1af354c9b753c92486866040516112ad929190614b3d565b60405180910390a350505050565b60606112c68261213e565b9050919050565b600080600e601a9054906101000a900465ffffffffffff1690506112f081611be4565b8015611301575061130081611bf9565b5b61131f57600d601a9054906101000a900465ffffffffffff16611335565b600e60149054906101000a900465ffffffffffff165b91505090565b60006113456113c8565b5090508073ffffffffffffffffffffffffffffffffffffffff16611367611753565b73ffffffffffffffffffffffffffffffffffffffff16146113bd576040517f08c379a00000000000000000000000000000000000000000000000000000000081526004016113b490614bd3565b60405180910390fd5b6113c5612250565b50565b600080600d60009054906101000a900473ffffffffffffffffffffffffffffffffffffffff16600d60149054906101000a900465ffffffffffff16915091509091565b7f9f2df0fed2c77648de5860a4cc508cd0818c85b8b8a1ab4ceeef8d981c8956a681565b6000801b8203611474576040517f08c379a000000000000000000000000000000000000000000000000000000000815260040161146b90614c65565b60405180910390fd5b61147e8282612319565b5050565b6000801b61148f81611814565b61149761233a565b50565b6000600560008473ffffffffffffffffffffffffffffffffffffffff1673ffffffffffffffffffffffffffffffffffffffff16815260200190815260200160002060008373ffffffffffffffffffffffffffffffffffffffff1673ffffffffffffffffffffffffffffffffffffffff16815260200190815260200160002060009054906101000a900460ff16905092915050565b61153f611539611753565b82611835565b61157e576040517f08c379a000000000000000000000000000000000000000000000000000000000815260040161157590614af0565b60405180910390fd5b60016010600083815260200190815260200160002060006101000a81548160ff02191690831515021790555050565b6115b78282610fe0565b61168a576001600c600084815260200190815260200160002060000160008373ffffffffffffffffffffffffffffffffffffffff1673ffffffffffffffffffffffffffffffffffffffff16815260200190815260200160002060006101000a81548160ff02191690831515021790555061162f611753565b73ffffffffffffffffffffffffffffffffffffffff168173ffffffffffffffffffffffffffffffffffffffff16837f2f8788117e7eff1d82e926ec794901d17c78024a50270940304540a733656f0d60405160405180910390a45b5050565b60007f31498786000000000000000000000000000000000000000000000000000000007bffffffffffffffffffffffffffffffffffffffffffffffffffffffff1916827bffffffffffffffffffffffffffffffffffffffffffffffffffffffff19161480611701575061170082612347565b5b9050919050565b611711816123c1565b611750576040517f08c379a0000000000000000000000000000000000000000000000000000000008152600401611747906149f2565b60405180910390fd5b50565b600033905090565b816004600083815260200190815260200160002060006101000a81548173ffffffffffffffffffffffffffffffffffffffff021916908373ffffffffffffffffffffffffffffffffffffffff160217905550808273ffffffffffffffffffffffffffffffffffffffff166117ce83610db9565b73ffffffffffffffffffffffffffffffffffffffff167f8c5be1e5ebec7d5bd14f71427d1e84f3dd0314c0f7b2291e5b200ac8c7c3b92560405160405180910390a45050565b61182581611820611753565b612402565b50565b611833600080612487565b565b60008061184183610db9565b90508073ffffffffffffffffffffffffffffffffffffffff168473ffffffffffffffffffffffffffffffffffffffff1614806118835750611882818561149a565b5b806118c157508373ffffffffffffffffffffffffffffffffffffffff166118a984610834565b73ffffffffffffffffffffffffffffffffffffffff16145b91505092915050565b8273ffffffffffffffffffffffffffffffffffffffff166118ea82610db9565b73ffffffffffffffffffffffffffffffffffffffff1614611940576040517f08c379a000000000000000000000000000000000000000000000000000000000815260040161193790614cf7565b60405180910390fd5b600073ffffffffffffffffffffffffffffffffffffffff168273ffffffffffffffffffffffffffffffffffffffff16036119af576040517f08c379a00000000000000000000000000000000000000000000000000000000081526004016119a690614d89565b60405180910390fd5b6119bc8383836001612577565b8273ffffffffffffffffffffffffffffffffffffffff166119dc82610db9565b73ffffffffffffffffffffffffffffffffffffffff1614611a32576040517f08c379a0000000000000000000000000000000000000000000000000000000008152600401611a2990614cf7565b60405180910390fd5b6004600082815260200190815260200160002060006101000a81549073ffffffffffffffffffffffffffffffffffffffff02191690556001600360008573ffffffffffffffffffffffffffffffffffffffff1673ffffffffffffffffffffffffffffffffffffffff168152602001908152602001600020600082825403925050819055506001600360008473ffffffffffffffffffffffffffffffffffffffff1673ffffffffffffffffffffffffffffffffffffffff16815260200190815260200160002060008282540192505081905550816002600083815260200190815260200160002060006101000a81548173ffffffffffffffffffffffffffffffffffffffff021916908373ffffffffffffffffffffffffffffffffffffffff160217905550808273ffffffffffffffffffffffffffffffffffffffff168473ffffffffffffffffffffffffffffffffffffffff167fddf252ad1be2c89b69c2b068fc378daa952ba7f163c4a11628f55a4df523b3ef60405160405180910390a4611bbe83838360016125ea565b505050565b611bcc82610a16565b611bd581611814565b611bdf83836125f0565b505050565b6000808265ffffffffffff1614159050919050565b6000428265ffffffffffff16109050919050565b611c15611753565b73ffffffffffffffffffffffffffffffffffffffff168173ffffffffffffffffffffffffffffffffffffffff1614611c82576040517f08c379a0000000000000000000000000000000000000000000000000000000008152600401611c7990614e1b565b60405180910390fd5b611c8c82826126c0565b5050565b611c9861273d565b6000600a60006101000a81548160ff0219169083151502179055507f5db9ee0a495bf2e6ff9c91a7834c1ba4fdd244a5e8aa4e537bd38aeae4b073aa611cdc611753565b604051611ce99190613ecd565b60405180910390a1565b611cfc81612786565b50565b6000611d096112cd565b611d12426127d9565b611d1c9190614e6a565b9050611d28828261282e565b8173ffffffffffffffffffffffffffffffffffffffff167f3377dc44241e779dd06afab5b788a35ca5f3b778836e2990bdb26a2a4b2e5ed682604051611d6e9190613d5c565b60405180910390a25050565b60006002600083815260200190815260200160002060009054906101000a900473ffffffffffffffffffffffffffffffffffffffff169050919050565b6000611dc2826128e1565b611dcb426127d9565b611dd59190614e6a565b9050611de18282612487565b7ff1038c18cf84a56e432fdbfaf746924b7ea511dfe03a6506a0ceba4888788d9b8282604051611e12929190614124565b60405180910390a15050565b611e26612940565b6001600a60006101000a81548160ff0219169083151502179055507f62e78cea01bee320cd4e420270b5ea74000d11b0c9f74754ebdbfc544b05a258611e6a611753565b604051611e779190613ecd565b60405180910390a1565b6000611e8b610fa7565b905090565b8173ffffffffffffffffffffffffffffffffffffffff168373ffffffffffffffffffffffffffffffffffffffff1603611efe576040517f08c379a0000000000000000000000000000000000000000000000000000000008152600401611ef590614ef0565b60405180910390fd5b80600560008573ffffffffffffffffffffffffffffffffffffffff1673ffffffffffffffffffffffffffffffffffffffff16815260200190815260200160002060008473ffffffffffffffffffffffffffffffffffffffff1673ffffffffffffffffffffffffffffffffffffffff16815260200190815260200160002060006101000a81548160ff0219169083151502179055508173ffffffffffffffffffffffffffffffffffffffff168373ffffffffffffffffffffffffffffffffffffffff167f17307eab39ab6107e8899845ad3d59bd9653f200f220920489ca2b5937696c3183604051611fef9190613d20565b60405180910390a3505050565b6120078484846118ca565b6120138484848461298a565b612052576040517f08c379a000000000000000000000000000000000000000000000000000000000815260040161204990614f82565b60405180910390fd5b50505050565b6001816000016000828254019250508190555050565b600081600001549050919050565b612096828260405180602001604052806000815250612b11565b5050565b6120a3826123c1565b6120e2576040517f08c379a00000000000000000000000000000000000000000000000000000000081526004016120d990615014565b60405180910390fd5b80600b6000848152602001908152602001600020908161210291906151e0565b507ff8e1a15aba9398e019f0b49df1a4fde98ee17ae345cb5f6b5e2c27f5033e8ce7826040516121329190613f63565b60405180910390a15050565b606061214982611708565b6000600b60008481526020019081526020016000208054612169906144b6565b80601f0160208091040260200160405190810160405280929190818152602001828054612195906144b6565b80156121e25780601f106121b7576101008083540402835291602001916121e2565b820191906000526020600020905b8154815290600101906020018083116121c557829003601f168201915b5050505050905060006121f3612b6c565b9050600081510361220857819250505061224b565b60008251111561223d5780826040516020016122259291906152ee565b6040516020818303038152906040529250505061224b565b61224684612ba9565b925050505b919050565b60008061225b6113c8565b9150915061226881611be4565b8015612279575061227881611bf9565b5b6122b8576040517f08c379a00000000000000000000000000000000000000000000000000000000081526004016122af90615384565b60405180910390fd5b6122cc6000801b6122c7610fa7565b6126c0565b6122d96000801b836125f0565b600d60006101000a81549073ffffffffffffffffffffffffffffffffffffffff0219169055600d60146101000a81549065ffffffffffff02191690555050565b61232282610a16565b61232b81611814565b61233583836126c0565b505050565b61234560008061282e565b565b60007f7965db0b000000000000000000000000000000000000000000000000000000007bffffffffffffffffffffffffffffffffffffffffffffffffffffffff1916827bffffffffffffffffffffffffffffffffffffffffffffffffffffffff191614806123ba57506123b982612c11565b5b9050919050565b60008073ffffffffffffffffffffffffffffffffffffffff166123e383611d7a565b73ffffffffffffffffffffffffffffffffffffffff1614159050919050565b61240c8282610fe0565b6124835761241981612c72565b6124278360001c6020612c9f565b60405160200161243892919061543c565b6040516020818303038152906040526040517f08c379a000000000000000000000000000000000000000000000000000000000815260040161247a9190613e07565b60405180910390fd5b5050565b6000600e601a9054906101000a900465ffffffffffff1690506124a981611be4565b15612528576124b781611bf9565b156124fa57600e60149054906101000a900465ffffffffffff16600d601a6101000a81548165ffffffffffff021916908365ffffffffffff160217905550612527565b7f2b1fa2edafe6f7b9e97c1a9e0c3660e645beb2dcaa2d45bdbf9beaf5472e1ec560405160405180910390a15b5b82600e60146101000a81548165ffffffffffff021916908365ffffffffffff16021790555081600e601a6101000a81548165ffffffffffff021916908365ffffffffffff160217905550505050565b61258384848484612edb565b6010600083815260200190815260200160002060009054906101000a900460ff16156125e4576040517f08c379a00000000000000000000000000000000000000000000000000000000081526004016125db906154e8565b60405180910390fd5b50505050565b50505050565b6000801b82036126b257600073ffffffffffffffffffffffffffffffffffffffff1661261a610fa7565b73ffffffffffffffffffffffffffffffffffffffff1614612670576040517f08c379a00000000000000000000000000000000000000000000000000000000081526004016126679061557a565b60405180910390fd5b80600e60006101000a81548173ffffffffffffffffffffffffffffffffffffffff021916908373ffffffffffffffffffffffffffffffffffffffff1602179055505b6126bc82826115ad565b5050565b6000801b8214801561270457506126d5610fa7565b73ffffffffffffffffffffffffffffffffffffffff168173ffffffffffffffffffffffffffffffffffffffff16145b1561272f57600e60006101000a81549073ffffffffffffffffffffffffffffffffffffffff02191690555b6127398282612f35565b5050565b612745610d88565b612784576040517f08c379a000000000000000000000000000000000000000000000000000000000815260040161277b906155e6565b60405180910390fd5b565b61278f81613017565b6000600b600083815260200190815260200160002080546127af906144b6565b9050146127d657600b600082815260200190815260200160002060006127d59190613c0f565b5b50565b600065ffffffffffff8016821115612826576040517f08c379a000000000000000000000000000000000000000000000000000000000815260040161281d90615678565b60405180910390fd5b819050919050565b60006128386113c8565b91505082600d60006101000a81548173ffffffffffffffffffffffffffffffffffffffff021916908373ffffffffffffffffffffffffffffffffffffffff16021790555081600d60146101000a81548165ffffffffffff021916908365ffffffffffff1602179055506128aa81611be4565b156128dc577f8886ebfc4259abdbc16601dd8fb5678e54878f47b3c34836cfc51154a960510960405160405180910390a15b505050565b6000806128ec6112cd565b90508065ffffffffffff168365ffffffffffff16116129165782816129119190615698565b612938565b6129378365ffffffffffff1661292a610797565b65ffffffffffff16613165565b5b915050919050565b612948610d88565b15612988576040517f08c379a000000000000000000000000000000000000000000000000000000000815260040161297f9061571e565b60405180910390fd5b565b60006129ab8473ffffffffffffffffffffffffffffffffffffffff1661317e565b15612b04578373ffffffffffffffffffffffffffffffffffffffff1663150b7a026129d4611753565b8786866040518563ffffffff1660e01b81526004016129f69493929190615793565b6020604051808303816000875af1925050508015612a3257506040513d601f19601f82011682018060405250810190612a2f91906157f4565b60015b612ab4573d8060008114612a62576040519150601f19603f3d011682016040523d82523d6000602084013e612a67565b606091505b506000815103612aac576040517f08c379a0000000000000000000000000000000000000000000000000000000008152600401612aa390614f82565b60405180910390fd5b805181602001fd5b63150b7a0260e01b7bffffffffffffffffffffffffffffffffffffffffffffffffffffffff1916817bffffffffffffffffffffffffffffffffffffffffffffffffffffffff191614915050612b09565b600190505b949350505050565b612b1b83836131a1565b612b28600084848461298a565b612b67576040517f08c379a0000000000000000000000000000000000000000000000000000000008152600401612b5e90614f82565b60405180910390fd5b505050565b60606040518060400160405280600781526020017f697066733a2f2f00000000000000000000000000000000000000000000000000815250905090565b6060612bb482611708565b6000612bbe612b6c565b90506000815111612bde5760405180602001604052806000815250612c09565b80612be8846133be565b604051602001612bf99291906152ee565b6040516020818303038152906040525b915050919050565b6000634906490660e01b7bffffffffffffffffffffffffffffffffffffffffffffffffffffffff1916827bffffffffffffffffffffffffffffffffffffffffffffffffffffffff19161480612c6b5750612c6a8261348c565b5b9050919050565b6060612c988273ffffffffffffffffffffffffffffffffffffffff16601460ff16612c9f565b9050919050565b606060006002836002612cb29190615821565b612cbc9190615863565b67ffffffffffffffff811115612cd557612cd46141c3565b5b6040519080825280601f01601f191660200182016040528015612d075781602001600182028036833780820191505090505b5090507f300000000000000000000000000000000000000000000000000000000000000081600081518110612d3f57612d3e614977565b5b60200101907effffffffffffffffffffffffffffffffffffffffffffffffffffffffffffff1916908160001a9053507f780000000000000000000000000000000000000000000000000000000000000081600181518110612da357612da2614977565b5b60200101907effffffffffffffffffffffffffffffffffffffffffffffffffffffffffffff1916908160001a90535060006001846002612de39190615821565b612ded9190615863565b90505b6001811115612e8d577f3031323334353637383961626364656600000000000000000000000000000000600f861660108110612e2f57612e2e614977565b5b1a60f81b828281518110612e4657612e45614977565b5b60200101907effffffffffffffffffffffffffffffffffffffffffffffffffffffffffffff1916908160001a905350600485901c945080612e8690615897565b9050612df0565b5060008414612ed1576040517f08c379a0000000000000000000000000000000000000000000000000000000008152600401612ec89061590c565b60405180910390fd5b8091505092915050565b612ee784848484613506565b612eef610d88565b15612f2f576040517f08c379a0000000000000000000000000000000000000000000000000000000008152600401612f26906154e8565b60405180910390fd5b50505050565b612f3f8282610fe0565b15613013576000600c600084815260200190815260200160002060000160008373ffffffffffffffffffffffffffffffffffffffff1673ffffffffffffffffffffffffffffffffffffffff16815260200190815260200160002060006101000a81548160ff021916908315150217905550612fb8611753565b73ffffffffffffffffffffffffffffffffffffffff168173ffffffffffffffffffffffffffffffffffffffff16837ff6391f5c32d9c69d2a47ea670b442974b53935d1edc7fd64eb21e047a839171b60405160405180910390a45b5050565b600061302282610db9565b9050613032816000846001612577565b61303b82610db9565b90506004600083815260200190815260200160002060006101000a81549073ffffffffffffffffffffffffffffffffffffffff02191690556001600360008373ffffffffffffffffffffffffffffffffffffffff1673ffffffffffffffffffffffffffffffffffffffff168152602001908152602001600020600082825403925050819055506002600083815260200190815260200160002060006101000a81549073ffffffffffffffffffffffffffffffffffffffff021916905581600073ffffffffffffffffffffffffffffffffffffffff168273ffffffffffffffffffffffffffffffffffffffff167fddf252ad1be2c89b69c2b068fc378daa952ba7f163c4a11628f55a4df523b3ef60405160405180910390a46131618160008460016125ea565b5050565b60008183106131745781613176565b825b905092915050565b6000808273ffffffffffffffffffffffffffffffffffffffff163b119050919050565b600073ffffffffffffffffffffffffffffffffffffffff168273ffffffffffffffffffffffffffffffffffffffff1603613210576040517f08c379a000000000000000000000000000000000000000000000000000000000815260040161320790615978565b60405180910390fd5b613219816123c1565b15613259576040517f08c379a0000000000000000000000000000000000000000000000000000000008152600401613250906159e4565b60405180910390fd5b613267600083836001612577565b613270816123c1565b156132b0576040517f08c379a00000000000000000000000000000000000000000000000000000000081526004016132a7906159e4565b60405180910390fd5b6001600360008473ffffffffffffffffffffffffffffffffffffffff1673ffffffffffffffffffffffffffffffffffffffff16815260200190815260200160002060008282540192505081905550816002600083815260200190815260200160002060006101000a81548173ffffffffffffffffffffffffffffffffffffffff021916908373ffffffffffffffffffffffffffffffffffffffff160217905550808273ffffffffffffffffffffffffffffffffffffffff16600073ffffffffffffffffffffffffffffffffffffffff167fddf252ad1be2c89b69c2b068fc378daa952ba7f163c4a11628f55a4df523b3ef60405160405180910390a46133ba6000838360016125ea565b5050565b6060600060016133cd84613664565b01905060008167ffffffffffffffff8111156133ec576133eb6141c3565b5b6040519080825280601f01601f19166020018201604052801561341e5781602001600182028036833780820191505090505b509050600082602001820190505b600115613481578080600190039150507f3031323334353637383961626364656600000000000000000000000000000000600a86061a8153600a858161347557613474615a04565b5b0494506000850361342c575b819350505050919050565b60007f780e9d63000000000000000000000000000000000000000000000000000000007bffffffffffffffffffffffffffffffffffffffffffffffffffffffff1916827bffffffffffffffffffffffffffffffffffffffffffffffffffffffff191614806134ff57506134fe826137b7565b5b9050919050565b61351284848484613899565b6001811115613556576040517f08c379a000000000000000000000000000000000000000000000000000000000815260040161354d90615aa5565b60405180910390fd5b6000829050600073ffffffffffffffffffffffffffffffffffffffff168573ffffffffffffffffffffffffffffffffffffffff160361359d576135988161389f565b6135dc565b8373ffffffffffffffffffffffffffffffffffffffff168573ffffffffffffffffffffffffffffffffffffffff16146135db576135da85826138e8565b5b5b600073ffffffffffffffffffffffffffffffffffffffff168473ffffffffffffffffffffffffffffffffffffffff160361361e5761361981613a55565b61365d565b8473ffffffffffffffffffffffffffffffffffffffff168473ffffffffffffffffffffffffffffffffffffffff161461365c5761365b8482613b26565b5b5b5050505050565b600080600090507a184f03e93ff9f4daa797ed6e38ed64bf6a1f01000000000000000083106136c2577a184f03e93ff9f4daa797ed6e38ed64bf6a1f01000000000000000083816136b8576136b7615a04565b5b0492506040810190505b6d04ee2d6d415b85acef810000000083106136ff576d04ee2d6d415b85acef810000000083816136f5576136f4615a04565b5b0492506020810190505b662386f26fc10000831061372e57662386f26fc10000838161372457613723615a04565b5b0492506010810190505b6305f5e1008310613757576305f5e100838161374d5761374c615a04565b5b0492506008810190505b612710831061377c57612710838161377257613771615a04565b5b0492506004810190505b6064831061379f576064838161379557613794615a04565b5b0492506002810190505b600a83106137ae576001810190505b80915050919050565b60007f80ac58cd000000000000000000000000000000000000000000000000000000007bffffffffffffffffffffffffffffffffffffffffffffffffffffffff1916827bffffffffffffffffffffffffffffffffffffffffffffffffffffffff1916148061388257507f5b5e139f000000000000000000000000000000000000000000000000000000007bffffffffffffffffffffffffffffffffffffffffffffffffffffffff1916827bffffffffffffffffffffffffffffffffffffffffffffffffffffffff1916145b80613892575061389182613ba5565b5b9050919050565b50505050565b6008805490506009600083815260200190815260200160002081905550600881908060018154018082558091505060019003906000526020600020016000909190919091505550565b600060016138f584610e59565b6138ff9190615ac5565b90506000600760008481526020019081526020016000205490508181146139e4576000600660008673ffffffffffffffffffffffffffffffffffffffff1673ffffffffffffffffffffffffffffffffffffffff168152602001908152602001600020600084815260200190815260200160002054905080600660008773ffffffffffffffffffffffffffffffffffffffff1673ffffffffffffffffffffffffffffffffffffffff168152602001908152602001600020600084815260200190815260200160002081905550816007600083815260200190815260200160002081905550505b6007600084815260200190815260200160002060009055600660008573ffffffffffffffffffffffffffffffffffffffff1673ffffffffffffffffffffffffffffffffffffffff16815260200190815260200160002060008381526020019081526020016000206000905550505050565b60006001600880549050613a699190615ac5565b9050600060096000848152602001908152602001600020549050600060088381548110613a9957613a98614977565b5b906000526020600020015490508060088381548110613abb57613aba614977565b5b906000526020600020018190555081600960008381526020019081526020016000208190555060096000858152602001908152602001600020600090556008805480613b0a57613b09615af9565b5b6001900381819060005260206000200160009055905550505050565b6000613b3183610e59565b905081600660008573ffffffffffffffffffffffffffffffffffffffff1673ffffffffffffffffffffffffffffffffffffffff168152602001908152602001600020600083815260200190815260200160002081905550806007600084815260200190815260200160002081905550505050565b60007f01ffc9a7000000000000000000000000000000000000000000000000000000007bffffffffffffffffffffffffffffffffffffffffffffffffffffffff1916827bffffffffffffffffffffffffffffffffffffffffffffffffffffffff1916149050919050565b508054613c1b906144b6565b6000825580601f10613c2d5750613c4c565b601f016020900490600052602060002090810190613c4b9190613c4f565b5b50565b5b80821115613c68576000816000905550600101613c50565b5090565b6000604051905090565b600080fd5b600080fd5b60007fffffffff0000000000000000000000000000000000000000000000000000000082169050919050565b613cb581613c80565b8114613cc057600080fd5b50565b600081359050613cd281613cac565b92915050565b600060208284031215613cee57613ced613c76565b5b6000613cfc84828501613cc3565b91505092915050565b60008115159050919050565b613d1a81613d05565b82525050565b6000602082019050613d356000830184613d11565b92915050565b600065ffffffffffff82169050919050565b613d5681613d3b565b82525050565b6000602082019050613d716000830184613d4d565b92915050565b600081519050919050565b600082825260208201905092915050565b60005b83811015613db1578082015181840152602081019050613d96565b60008484015250505050565b6000601f19601f8301169050919050565b6000613dd982613d77565b613de38185613d82565b9350613df3818560208601613d93565b613dfc81613dbd565b840191505092915050565b60006020820190508181036000830152613e218184613dce565b905092915050565b6000819050919050565b613e3c81613e29565b8114613e4757600080fd5b50565b600081359050613e5981613e33565b92915050565b600060208284031215613e7557613e74613c76565b5b6000613e8384828501613e4a565b91505092915050565b600073ffffffffffffffffffffffffffffffffffffffff82169050919050565b6000613eb782613e8c565b9050919050565b613ec781613eac565b82525050565b6000602082019050613ee26000830184613ebe565b92915050565b613ef181613eac565b8114613efc57600080fd5b50565b600081359050613f0e81613ee8565b92915050565b60008060408385031215613f2b57613f2a613c76565b5b6000613f3985828601613eff565b9250506020613f4a85828601613e4a565b9150509250929050565b613f5d81613e29565b82525050565b6000602082019050613f786000830184613f54565b92915050565b600080600060608486031215613f9757613f96613c76565b5b6000613fa586828701613eff565b9350506020613fb686828701613eff565b9250506040613fc786828701613e4a565b9150509250925092565b6000819050919050565b613fe481613fd1565b8114613fef57600080fd5b50565b60008135905061400181613fdb565b92915050565b60006020828403121561401d5761401c613c76565b5b600061402b84828501613ff2565b91505092915050565b61403d81613fd1565b82525050565b60006020820190506140586000830184614034565b92915050565b6000806040838503121561407557614074613c76565b5b600061408385828601613ff2565b925050602061409485828601613eff565b9150509250929050565b6000602082840312156140b4576140b3613c76565b5b60006140c284828501613eff565b91505092915050565b6140d481613d3b565b81146140df57600080fd5b50565b6000813590506140f1816140cb565b92915050565b60006020828403121561410d5761410c613c76565b5b600061411b848285016140e2565b91505092915050565b60006040820190506141396000830185613d4d565b6141466020830184613d4d565b9392505050565b61415681613d05565b811461416157600080fd5b50565b6000813590506141738161414d565b92915050565b600080604083850312156141905761418f613c76565b5b600061419e85828601613eff565b92505060206141af85828601614164565b9150509250929050565b600080fd5b600080fd5b7f4e487b7100000000000000000000000000000000000000000000000000000000600052604160045260246000fd5b6141fb82613dbd565b810181811067ffffffffffffffff8211171561421a576142196141c3565b5b80604052505050565b600061422d613c6c565b905061423982826141f2565b919050565b600067ffffffffffffffff821115614259576142586141c3565b5b61426282613dbd565b9050602081019050919050565b82818337600083830152505050565b600061429161428c8461423e565b614223565b9050828152602081018484840111156142ad576142ac6141be565b5b6142b884828561426f565b509392505050565b600082601f8301126142d5576142d46141b9565b5b81356142e584826020860161427e565b91505092915050565b6000806000806080858703121561430857614307613c76565b5b600061431687828801613eff565b945050602061432787828801613eff565b935050604061433887828801613e4a565b925050606085013567ffffffffffffffff81111561435957614358613c7b565b5b614365878288016142c0565b91505092959194509250565b600080fd5b600080fd5b60008083601f840112614391576143906141b9565b5b8235905067ffffffffffffffff8111156143ae576143ad614371565b5b6020830191508360018202830111156143ca576143c9614376565b5b9250929050565b600080602083850312156143e8576143e7613c76565b5b600083013567ffffffffffffffff81111561440657614405613c7b565b5b6144128582860161437b565b92509250509250929050565b60006040820190506144336000830185613ebe565b6144406020830184613d4d565b9392505050565b6000806040838503121561445e5761445d613c76565b5b600061446c85828601613eff565b925050602061447d85828601613eff565b9150509250929050565b7f4e487b7100000000000000000000000000000000000000000000000000000000600052602260045260246000fd5b600060028204905060018216806144ce57607f821691505b6020821081036144e1576144e0614487565b5b50919050565b7f4552433732313a20617070726f76616c20746f2063757272656e74206f776e6560008201527f7200000000000000000000000000000000000000000000000000000000000000602082015250565b6000614543602183613d82565b915061454e826144e7565b604082019050919050565b6000602082019050818103600083015261457281614536565b9050919050565b7f4552433732313a20617070726f76652063616c6c6572206973206e6f7420746f60008201527f6b656e206f776e6572206f7220617070726f76656420666f7220616c6c000000602082015250565b60006145d5603d83613d82565b91506145e082614579565b604082019050919050565b60006020820190508181036000830152614604816145c8565b9050919050565b7f4552433732313a2063616c6c6572206973206e6f7420746f6b656e206f776e6560008201527f72206f7220617070726f76656400000000000000000000000000000000000000602082015250565b6000614667602d83613d82565b91506146728261460b565b604082019050919050565b600060208201905081810360008301526146968161465a565b9050919050565b7f416363657373436f6e74726f6c3a2063616e2774206469726563746c7920677260008201527f616e742064656661756c742061646d696e20726f6c6500000000000000000000602082015250565b60006146f9603683613d82565b91506147048261469d565b604082019050919050565b60006020820190508181036000830152614728816146ec565b9050919050565b7f455243373231456e756d657261626c653a206f776e657220696e646578206f7560008201527f74206f6620626f756e6473000000000000000000000000000000000000000000602082015250565b600061478b602b83613d82565b91506147968261472f565b604082019050919050565b600060208201905081810360008301526147ba8161477e565b9050919050565b7f416363657373436f6e74726f6c3a206f6e6c792063616e2072656e6f756e636560008201527f20696e2074776f2064656c617965642073746570730000000000000000000000602082015250565b600061481d603583613d82565b9150614828826147c1565b604082019050919050565b6000602082019050818103600083015261484c81614810565b9050919050565b7f4272616e64537761703a206d7573742068617665206275726e657220726f6c6560008201527f20746f206275726e000000000000000000000000000000000000000000000000602082015250565b60006148af602883613d82565b91506148ba82614853565b604082019050919050565b600060208201905081810360008301526148de816148a2565b9050919050565b7f455243373231456e756d657261626c653a20676c6f62616c20696e646578206f60008201527f7574206f6620626f756e64730000000000000000000000000000000000000000602082015250565b6000614941602c83613d82565b915061494c826148e5565b604082019050919050565b6000602082019050818103600083015261497081614934565b9050919050565b7f4e487b7100000000000000000000000000000000000000000000000000000000600052603260045260246000fd5b7f4552433732313a20696e76616c696420746f6b656e2049440000000000000000600082015250565b60006149dc601883613d82565b91506149e7826149a6565b602082019050919050565b60006020820190508181036000830152614a0b816149cf565b9050919050565b7f4552433732313a2061646472657373207a65726f206973206e6f74206120766160008201527f6c6964206f776e65720000000000000000000000000000000000000000000000602082015250565b6000614a6e602983613d82565b9150614a7982614a12565b604082019050919050565b60006020820190508181036000830152614a9d81614a61565b9050919050565b7f43616c6c6572206973206e6f74206f776e6572206e6f7220617070726f766564600082015250565b6000614ada602083613d82565b9150614ae582614aa4565b602082019050919050565b60006020820190508181036000830152614b0981614acd565b9050919050565b6000614b1c8385613d82565b9350614b2983858461426f565b614b3283613dbd565b840190509392505050565b60006020820190508181036000830152614b58818486614b10565b90509392505050565b7f416363657373436f6e74726f6c3a2070656e64696e672061646d696e206d757360008201527f7420616363657074000000000000000000000000000000000000000000000000602082015250565b6000614bbd602883613d82565b9150614bc882614b61565b604082019050919050565b60006020820190508181036000830152614bec81614bb0565b9050919050565b7f416363657373436f6e74726f6c3a2063616e2774206469726563746c7920726560008201527f766f6b652064656661756c742061646d696e20726f6c65000000000000000000602082015250565b6000614c4f603783613d82565b9150614c5a82614bf3565b604082019050919050565b60006020820190508181036000830152614c7e81614c42565b9050919050565b7f4552433732313a207472616e736665722066726f6d20696e636f72726563742060008201527f6f776e6572000000000000000000000000000000000000000000000000000000602082015250565b6000614ce1602583613d82565b9150614cec82614c85565b604082019050919050565b60006020820190508181036000830152614d1081614cd4565b9050919050565b7f4552433732313a207472616e7366657220746f20746865207a65726f2061646460008201527f7265737300000000000000000000000000000000000000000000000000000000602082015250565b6000614d73602483613d82565b9150614d7e82614d17565b604082019050919050565b60006020820190508181036000830152614da281614d66565b9050919050565b7f416363657373436f6e74726f6c3a2063616e206f6e6c792072656e6f756e636560008201527f20726f6c657320666f722073656c660000000000000000000000000000000000602082015250565b6000614e05602f83613d82565b9150614e1082614da9565b604082019050919050565b60006020820190508181036000830152614e3481614df8565b9050919050565b7f4e487b7100000000000000000000000000000000000000000000000000000000600052601160045260246000fd5b6000614e7582613d3b565b9150614e8083613d3b565b9250828201905065ffffffffffff811115614e9e57614e9d614e3b565b5b92915050565b7f4552433732313a20617070726f766520746f2063616c6c657200000000000000600082015250565b6000614eda601983613d82565b9150614ee582614ea4565b602082019050919050565b60006020820190508181036000830152614f0981614ecd565b9050919050565b7f4552433732313a207472616e7366657220746f206e6f6e20455243373231526560008201527f63656976657220696d706c656d656e7465720000000000000000000000000000602082015250565b6000614f6c603283613d82565b9150614f7782614f10565b604082019050919050565b60006020820190508181036000830152614f9b81614f5f565b9050919050565b7f45524337323155524953746f726167653a2055524920736574206f66206e6f6e60008201527f6578697374656e7420746f6b656e000000000000000000000000000000000000602082015250565b6000614ffe602e83613d82565b915061500982614fa2565b604082019050919050565b6000602082019050818103600083015261502d81614ff1565b9050919050565b60008190508160005260206000209050919050565b60006020601f8301049050919050565b600082821b905092915050565b6000600883026150967fffffffffffffffffffffffffffffffffffffffffffffffffffffffffffffffff82615059565b6150a08683615059565b95508019841693508086168417925050509392505050565b6000819050919050565b60006150dd6150d86150d384613e29565b6150b8565b613e29565b9050919050565b6000819050919050565b6150f7836150c2565b61510b615103826150e4565b848454615066565b825550505050565b600090565b615120615113565b61512b8184846150ee565b505050565b5b8181101561514f57615144600082615118565b600181019050615131565b5050565b601f8211156151945761516581615034565b61516e84615049565b8101602085101561517d578190505b61519161518985615049565b830182615130565b50505b505050565b600082821c905092915050565b60006151b760001984600802615199565b1980831691505092915050565b60006151d083836151a6565b9150826002028217905092915050565b6151e982613d77565b67ffffffffffffffff811115615202576152016141c3565b5b61520c82546144b6565b615217828285615153565b600060209050601f83116001811461524a5760008415615238578287015190505b61524285826151c4565b8655506152aa565b601f19841661525886615034565b60005b828110156152805784890151825560018201915060208501945060208101905061525b565b8683101561529d5784890151615299601f8916826151a6565b8355505b6001600288020188555050505b505050505050565b600081905092915050565b60006152c882613d77565b6152d281856152b2565b93506152e2818560208601613d93565b80840191505092915050565b60006152fa82856152bd565b915061530682846152bd565b91508190509392505050565b7f416363657373436f6e74726f6c3a207472616e736665722064656c6179206e6f60008201527f7420706173736564000000000000000000000000000000000000000000000000602082015250565b600061536e602883613d82565b915061537982615312565b604082019050919050565b6000602082019050818103600083015261539d81615361565b9050919050565b7f416363657373436f6e74726f6c3a206163636f756e7420000000000000000000600082015250565b60006153da6017836152b2565b91506153e5826153a4565b601782019050919050565b7f206973206d697373696e6720726f6c6520000000000000000000000000000000600082015250565b60006154266011836152b2565b9150615431826153f0565b601182019050919050565b6000615447826153cd565b915061545382856152bd565b915061545e82615419565b915061546a82846152bd565b91508190509392505050565b7f4552433732315061757361626c653a20746f6b656e207472616e73666572207760008201527f68696c6520706175736564000000000000000000000000000000000000000000602082015250565b60006154d2602b83613d82565b91506154dd82615476565b604082019050919050565b60006020820190508181036000830152615501816154c5565b9050919050565b7f416363657373436f6e74726f6c3a2064656661756c742061646d696e20616c7260008201527f65616479206772616e7465640000000000000000000000000000000000000000602082015250565b6000615564602c83613d82565b915061556f82615508565b604082019050919050565b6000602082019050818103600083015261559381615557565b9050919050565b7f5061757361626c653a206e6f7420706175736564000000000000000000000000600082015250565b60006155d0601483613d82565b91506155db8261559a565b602082019050919050565b600060208201905081810360008301526155ff816155c3565b9050919050565b7f53616665436173743a2076616c756520646f65736e27742066697420696e203460008201527f3820626974730000000000000000000000000000000000000000000000000000602082015250565b6000615662602683613d82565b915061566d82615606565b604082019050919050565b6000602082019050818103600083015261569181615655565b9050919050565b60006156a382613d3b565b91506156ae83613d3b565b9250828203905065ffffffffffff8111156156cc576156cb614e3b565b5b92915050565b7f5061757361626c653a2070617573656400000000000000000000000000000000600082015250565b6000615708601083613d82565b9150615713826156d2565b602082019050919050565b60006020820190508181036000830152615737816156fb565b9050919050565b600081519050919050565b600082825260208201905092915050565b60006157658261573e565b61576f8185615749565b935061577f818560208601613d93565b61578881613dbd565b840191505092915050565b60006080820190506157a86000830187613ebe565b6157b56020830186613ebe565b6157c26040830185613f54565b81810360608301526157d4818461575a565b905095945050505050565b6000815190506157ee81613cac565b92915050565b60006020828403121561580a57615809613c76565b5b6000615818848285016157df565b91505092915050565b600061582c82613e29565b915061583783613e29565b925082820261584581613e29565b9150828204841483151761585c5761585b614e3b565b5b5092915050565b600061586e82613e29565b915061587983613e29565b925082820190508082111561589157615890614e3b565b5b92915050565b60006158a282613e29565b9150600082036158b5576158b4614e3b565b5b600182039050919050565b7f537472696e67733a20686578206c656e67746820696e73756666696369656e74600082015250565b60006158f6602083613d82565b9150615901826158c0565b602082019050919050565b60006020820190508181036000830152615925816158e9565b9050919050565b7f4552433732313a206d696e7420746f20746865207a65726f2061646472657373600082015250565b6000615962602083613d82565b915061596d8261592c565b602082019050919050565b6000602082019050818103600083015261599181615955565b9050919050565b7f4552433732313a20746f6b656e20616c7265616479206d696e74656400000000600082015250565b60006159ce601c83613d82565b91506159d982615998565b602082019050919050565b600060208201905081810360008301526159fd816159c1565b9050919050565b7f4e487b7100000000000000000000000000000000000000000000000000000000600052601260045260246000fd5b7f455243373231456e756d657261626c653a20636f6e736563757469766520747260008201527f616e7366657273206e6f7420737570706f727465640000000000000000000000602082015250565b6000615a8f603583613d82565b9150615a9a82615a33565b604082019050919050565b60006020820190508181036000830152615abe81615a82565b9050919050565b6000615ad082613e29565b9150615adb83613e29565b9250828203905081811115615af357615af2614e3b565b5b92915050565b7f4e487b7100000000000000000000000000000000000000000000000000000000600052603160045260246000fdfea2646970667358221220bdb935009e129c31a56f810ecccd1469c213e8a454149326315a5d7d707ca86864736f6c63430008120033",
  "linkReferences": {},
  "deployedLinkReferences": {}
}